{
  "_format": "hh3-artifact-1",
  "contractName": "Tamagotchi",
  "sourceName": "contracts/Tamagotchi.sol",
  "abi": [
    {
      "inputs": [
        {
          "internalType": "uint256",
          "name": "_interval",
          "type": "uint256"
        },
        {
          "internalType": "uint256",
          "name": "_hungerDecayRatePerSecond",
          "type": "uint256"
        },
        {
          "internalType": "uint256",
          "name": "_happinessDecayRatePerSecond",
          "type": "uint256"
        },
        {
          "internalType": "uint256",
          "name": "_energyDecayRatePerSecond",
          "type": "uint256"
        },
        {
          "internalType": "uint256",
          "name": "_funDecayRatePerSecond",
          "type": "uint256"
        },
        {
          "internalType": "uint256",
          "name": "_hygieneDecayRatePerSecond",
          "type": "uint256"
        },
        {
          "internalType": "uint256",
          "name": "_growthInterval",
          "type": "uint256"
        },
        {
          "internalType": "uint256",
          "name": "_hungerToleranceInterval",
          "type": "uint256"
        },
        {
          "internalType": "uint256",
          "name": "_sadToleranceInterval",
          "type": "uint256"
        },
        {
          "internalType": "uint256",
          "name": "_stinkyToleranceInterval",
          "type": "uint256"
        },
        {
          "internalType": "uint256",
          "name": "_boredToleranceInterval",
          "type": "uint256"
        },
        {
          "internalType": "uint256",
          "name": "_sleepToleranceInterval",
          "type": "uint256"
        },
        {
          "internalType": "uint256",
          "name": "_subscriptionId",
          "type": "uint256"
        },
        {
          "internalType": "address",
          "name": "_vrfCoordinator",
          "type": "address"
        },
        {
          "internalType": "bytes32",
          "name": "_keyHash",
          "type": "bytes32"
        },
        {
          "internalType": "uint32",
          "name": "_callbackGasLimit",
          "type": "uint32"
        },
        {
          "internalType": "string",
          "name": "_happyImageUri",
          "type": "string"
        },
        {
          "internalType": "string",
          "name": "_sadImageUri",
          "type": "string"
        },
        {
          "internalType": "string",
          "name": "_neutralImageUri",
          "type": "string"
        },
        {
          "internalType": "string",
          "name": "_hungryImageUri",
          "type": "string"
        },
        {
          "internalType": "string",
          "name": "_boredImageUri",
          "type": "string"
        },
        {
          "internalType": "string",
          "name": "_stinkyImageUri",
          "type": "string"
        },
        {
          "internalType": "string",
          "name": "_lethargicImageUri",
          "type": "string"
        },
        {
          "internalType": "string",
          "name": "_deadImageUri",
          "type": "string"
        }
      ],
      "stateMutability": "nonpayable",
      "type": "constructor"
    },
    {
      "inputs": [
        {
          "internalType": "address",
          "name": "sender",
          "type": "address"
        },
        {
          "internalType": "uint256",
          "name": "tokenId",
          "type": "uint256"
        },
        {
          "internalType": "address",
          "name": "owner",
          "type": "address"
        }
      ],
      "name": "ERC721IncorrectOwner",
      "type": "error"
    },
    {
      "inputs": [
        {
          "internalType": "address",
          "name": "operator",
          "type": "address"
        },
        {
          "internalType": "uint256",
          "name": "tokenId",
          "type": "uint256"
        }
      ],
      "name": "ERC721InsufficientApproval",
      "type": "error"
    },
    {
      "inputs": [
        {
          "internalType": "address",
          "name": "approver",
          "type": "address"
        }
      ],
      "name": "ERC721InvalidApprover",
      "type": "error"
    },
    {
      "inputs": [
        {
          "internalType": "address",
          "name": "operator",
          "type": "address"
        }
      ],
      "name": "ERC721InvalidOperator",
      "type": "error"
    },
    {
      "inputs": [
        {
          "internalType": "address",
          "name": "owner",
          "type": "address"
        }
      ],
      "name": "ERC721InvalidOwner",
      "type": "error"
    },
    {
      "inputs": [
        {
          "internalType": "address",
          "name": "receiver",
          "type": "address"
        }
      ],
      "name": "ERC721InvalidReceiver",
      "type": "error"
    },
    {
      "inputs": [
        {
          "internalType": "address",
          "name": "sender",
          "type": "address"
        }
      ],
      "name": "ERC721InvalidSender",
      "type": "error"
    },
    {
      "inputs": [
        {
          "internalType": "uint256",
          "name": "tokenId",
          "type": "uint256"
        }
      ],
      "name": "ERC721NonexistentToken",
      "type": "error"
    },
    {
      "inputs": [
        {
          "internalType": "address",
          "name": "have",
          "type": "address"
        },
        {
          "internalType": "address",
          "name": "want",
          "type": "address"
        }
      ],
      "name": "OnlyCoordinatorCanFulfill",
      "type": "error"
    },
    {
      "inputs": [
        {
          "internalType": "address",
          "name": "have",
          "type": "address"
        },
        {
          "internalType": "address",
          "name": "owner",
          "type": "address"
        },
        {
          "internalType": "address",
          "name": "coordinator",
          "type": "address"
        }
      ],
      "name": "OnlyOwnerOrCoordinator",
      "type": "error"
    },
    {
      "inputs": [],
      "name": "Tamagotchi__AlreadyClean",
      "type": "error"
    },
    {
      "inputs": [],
      "name": "Tamagotchi__AlreadyEnergized",
      "type": "error"
    },
    {
      "inputs": [],
      "name": "Tamagotchi__AlreadyEntertained",
      "type": "error"
    },
    {
      "inputs": [],
      "name": "Tamagotchi__AlreadyFull",
      "type": "error"
    },
    {
      "inputs": [],
      "name": "Tamagotchi__AlreadyHappy",
      "type": "error"
    },
    {
      "inputs": [],
      "name": "Tamagotchi__NotAuthorized",
      "type": "error"
    },
    {
      "inputs": [],
      "name": "Tamagotchi__NotOwner",
      "type": "error"
    },
    {
      "inputs": [],
      "name": "Tamagotchi__NotValidToken",
      "type": "error"
    },
    {
      "inputs": [],
      "name": "Tamagotchi__PetIsDead",
      "type": "error"
    },
    {
      "inputs": [],
      "name": "Tamagotchi__RequestNotFound",
      "type": "error"
    },
    {
      "inputs": [],
      "name": "Tamagotchi__UpkeepNotNeeded",
      "type": "error"
    },
    {
      "inputs": [],
      "name": "ZeroAddress",
      "type": "error"
    },
    {
      "anonymous": false,
      "inputs": [
        {
          "indexed": true,
          "internalType": "address",
          "name": "owner",
          "type": "address"
        },
        {
          "indexed": true,
          "internalType": "address",
          "name": "approved",
          "type": "address"
        },
        {
          "indexed": true,
          "internalType": "uint256",
          "name": "tokenId",
          "type": "uint256"
        }
      ],
      "name": "Approval",
      "type": "event"
    },
    {
      "anonymous": false,
      "inputs": [
        {
          "indexed": true,
          "internalType": "address",
          "name": "owner",
          "type": "address"
        },
        {
          "indexed": true,
          "internalType": "address",
          "name": "operator",
          "type": "address"
        },
        {
          "indexed": false,
          "internalType": "bool",
          "name": "approved",
          "type": "bool"
        }
      ],
      "name": "ApprovalForAll",
      "type": "event"
    },
    {
      "anonymous": false,
      "inputs": [
        {
          "indexed": false,
          "internalType": "address",
          "name": "sender",
          "type": "address"
        },
        {
          "indexed": false,
          "internalType": "uint256",
          "name": "tokenId",
          "type": "uint256"
        },
        {
          "indexed": false,
          "internalType": "uint256",
          "name": "hygieneLevel",
          "type": "uint256"
        }
      ],
      "name": "Bathing",
      "type": "event"
    },
    {
      "anonymous": false,
      "inputs": [
        {
          "indexed": false,
          "internalType": "address",
          "name": "vrfCoordinator",
          "type": "address"
        }
      ],
      "name": "CoordinatorSet",
      "type": "event"
    },
    {
      "anonymous": false,
      "inputs": [
        {
          "indexed": false,
          "internalType": "address",
          "name": "sender",
          "type": "address"
        },
        {
          "indexed": false,
          "internalType": "uint256",
          "name": "tokenId",
          "type": "uint256"
        },
        {
          "indexed": false,
          "internalType": "uint256",
          "name": "happinessLevel",
          "type": "uint256"
        }
      ],
      "name": "Cuddling",
      "type": "event"
    },
    {
      "anonymous": false,
      "inputs": [
        {
          "indexed": false,
          "internalType": "address",
          "name": "sender",
          "type": "address"
        },
        {
          "indexed": false,
          "internalType": "uint256",
          "name": "tokenId",
          "type": "uint256"
        },
        {
          "indexed": false,
          "internalType": "uint256",
          "name": "hungerLevel",
          "type": "uint256"
        }
      ],
      "name": "Feeding",
      "type": "event"
    },
    {
      "anonymous": false,
      "inputs": [
        {
          "indexed": false,
          "internalType": "address",
          "name": "owner",
          "type": "address"
        },
        {
          "indexed": false,
          "internalType": "uint256",
          "name": "tokenId",
          "type": "uint256"
        }
      ],
      "name": "NftMinted",
      "type": "event"
    },
    {
      "anonymous": false,
      "inputs": [
        {
          "indexed": true,
          "internalType": "address",
          "name": "from",
          "type": "address"
        },
        {
          "indexed": true,
          "internalType": "address",
          "name": "to",
          "type": "address"
        }
      ],
      "name": "OwnershipTransferRequested",
      "type": "event"
    },
    {
      "anonymous": false,
      "inputs": [
        {
          "indexed": true,
          "internalType": "address",
          "name": "from",
          "type": "address"
        },
        {
          "indexed": true,
          "internalType": "address",
          "name": "to",
          "type": "address"
        }
      ],
      "name": "OwnershipTransferred",
      "type": "event"
    },
    {
      "anonymous": false,
      "inputs": [
        {
          "indexed": false,
          "internalType": "uint256",
          "name": "requestId",
          "type": "uint256"
        },
        {
          "indexed": false,
          "internalType": "uint256",
          "name": "deathAge",
          "type": "uint256"
        }
      ],
      "name": "PetDeathAgeAssigned",
      "type": "event"
    },
    {
      "anonymous": false,
      "inputs": [
        {
          "indexed": false,
          "internalType": "uint256",
          "name": "tokenId",
          "type": "uint256"
        },
        {
          "indexed": false,
          "internalType": "uint256",
          "name": "timestamp",
          "type": "uint256"
        }
      ],
      "name": "PetDied",
      "type": "event"
    },
    {
      "anonymous": false,
      "inputs": [
        {
          "indexed": false,
          "internalType": "address",
          "name": "sender",
          "type": "address"
        },
        {
          "indexed": false,
          "internalType": "uint256",
          "name": "tokenId",
          "type": "uint256"
        },
        {
          "indexed": false,
          "internalType": "uint256",
          "name": "funLevel",
          "type": "uint256"
        }
      ],
      "name": "Playing",
      "type": "event"
    },
    {
      "anonymous": false,
      "inputs": [
        {
          "indexed": false,
          "internalType": "uint256",
          "name": "requestId",
          "type": "uint256"
        },
        {
          "indexed": false,
          "internalType": "uint32",
          "name": "numWords",
          "type": "uint32"
        }
      ],
      "name": "RequestSent",
      "type": "event"
    },
    {
      "anonymous": false,
      "inputs": [
        {
          "indexed": false,
          "internalType": "address",
          "name": "sender",
          "type": "address"
        },
        {
          "indexed": false,
          "internalType": "uint256",
          "name": "tokenId",
          "type": "uint256"
        },
        {
          "indexed": false,
          "internalType": "uint256",
          "name": "energyLevel",
          "type": "uint256"
        }
      ],
      "name": "Sleeping",
      "type": "event"
    },
    {
      "anonymous": false,
      "inputs": [
        {
          "indexed": true,
          "internalType": "address",
          "name": "from",
          "type": "address"
        },
        {
          "indexed": true,
          "internalType": "address",
          "name": "to",
          "type": "address"
        },
        {
          "indexed": true,
          "internalType": "uint256",
          "name": "tokenId",
          "type": "uint256"
        }
      ],
      "name": "Transfer",
      "type": "event"
    },
    {
      "inputs": [],
      "name": "acceptOwnership",
      "outputs": [],
      "stateMutability": "nonpayable",
      "type": "function"
    },
    {
      "inputs": [
        {
          "internalType": "address",
          "name": "to",
          "type": "address"
        },
        {
          "internalType": "uint256",
          "name": "tokenId",
          "type": "uint256"
        }
      ],
      "name": "approve",
      "outputs": [],
      "stateMutability": "nonpayable",
      "type": "function"
    },
    {
      "inputs": [
        {
          "internalType": "address",
          "name": "owner",
          "type": "address"
        }
      ],
      "name": "balanceOf",
      "outputs": [
        {
          "internalType": "uint256",
          "name": "",
          "type": "uint256"
        }
      ],
      "stateMutability": "view",
      "type": "function"
    },
    {
      "inputs": [
        {
          "internalType": "uint256",
          "name": "tokenId",
          "type": "uint256"
        }
      ],
      "name": "bathe",
      "outputs": [],
      "stateMutability": "nonpayable",
      "type": "function"
    },
    {
      "inputs": [
        {
          "internalType": "bytes",
          "name": "",
          "type": "bytes"
        }
      ],
      "name": "checkUpkeep",
      "outputs": [
        {
          "internalType": "bool",
          "name": "upkeepNeeded",
          "type": "bool"
        },
        {
          "internalType": "bytes",
          "name": "",
          "type": "bytes"
        }
      ],
      "stateMutability": "view",
      "type": "function"
    },
    {
      "inputs": [
        {
          "internalType": "uint256",
          "name": "tokenId",
          "type": "uint256"
        }
      ],
      "name": "cuddle",
      "outputs": [],
      "stateMutability": "nonpayable",
      "type": "function"
    },
    {
      "inputs": [],
      "name": "deathAge",
      "outputs": [
        {
          "internalType": "uint256",
          "name": "",
          "type": "uint256"
        }
      ],
      "stateMutability": "view",
      "type": "function"
    },
    {
      "inputs": [
        {
          "internalType": "uint256",
          "name": "tokenId",
          "type": "uint256"
        }
      ],
      "name": "feed",
      "outputs": [],
      "stateMutability": "nonpayable",
      "type": "function"
    },
    {
      "inputs": [
        {
          "internalType": "uint256",
          "name": "tokenId",
          "type": "uint256"
        }
      ],
      "name": "getApproved",
      "outputs": [
        {
          "internalType": "address",
          "name": "",
          "type": "address"
        }
      ],
      "stateMutability": "view",
      "type": "function"
    },
    {
      "inputs": [],
      "name": "getBoredImageUri",
      "outputs": [
        {
          "internalType": "string",
          "name": "",
          "type": "string"
        }
      ],
      "stateMutability": "view",
      "type": "function"
    },
    {
      "inputs": [],
      "name": "getBoredToleranceInterval",
      "outputs": [
        {
          "internalType": "uint256",
          "name": "",
          "type": "uint256"
        }
      ],
      "stateMutability": "view",
      "type": "function"
    },
    {
      "inputs": [],
      "name": "getCallbackGasLimit",
      "outputs": [
        {
          "internalType": "uint32",
          "name": "",
          "type": "uint32"
        }
      ],
      "stateMutability": "view",
      "type": "function"
    },
    {
      "inputs": [],
      "name": "getDecayPrecision",
      "outputs": [
        {
          "internalType": "uint256",
          "name": "",
          "type": "uint256"
        }
      ],
      "stateMutability": "pure",
      "type": "function"
    },
    {
      "inputs": [],
      "name": "getEnergyDecayRatePerSecond",
      "outputs": [
        {
          "internalType": "uint256",
          "name": "",
          "type": "uint256"
        }
      ],
      "stateMutability": "view",
      "type": "function"
    },
    {
      "inputs": [],
      "name": "getFunDecayRatePerSecond",
      "outputs": [
        {
          "internalType": "uint256",
          "name": "",
          "type": "uint256"
        }
      ],
      "stateMutability": "view",
      "type": "function"
    },
    {
      "inputs": [],
      "name": "getGrowthInterval",
      "outputs": [
        {
          "internalType": "uint256",
          "name": "",
          "type": "uint256"
        }
      ],
      "stateMutability": "view",
      "type": "function"
    },
    {
      "inputs": [],
      "name": "getHappinessDecayRatePerSecond",
      "outputs": [
        {
          "internalType": "uint256",
          "name": "",
          "type": "uint256"
        }
      ],
      "stateMutability": "view",
      "type": "function"
    },
    {
      "inputs": [],
      "name": "getHappyImageUri",
      "outputs": [
        {
          "internalType": "string",
          "name": "",
          "type": "string"
        }
      ],
      "stateMutability": "view",
      "type": "function"
    },
    {
      "inputs": [],
      "name": "getHungerDecayRatePerSecond",
      "outputs": [
        {
          "internalType": "uint256",
          "name": "",
          "type": "uint256"
        }
      ],
      "stateMutability": "view",
      "type": "function"
    },
    {
      "inputs": [],
      "name": "getHungerToleranceInterval",
      "outputs": [
        {
          "internalType": "uint256",
          "name": "",
          "type": "uint256"
        }
      ],
      "stateMutability": "view",
      "type": "function"
    },
    {
      "inputs": [],
      "name": "getHungryImageUri",
      "outputs": [
        {
          "internalType": "string",
          "name": "",
          "type": "string"
        }
      ],
      "stateMutability": "view",
      "type": "function"
    },
    {
      "inputs": [],
      "name": "getHygieneDecayRatePerSecond",
      "outputs": [
        {
          "internalType": "uint256",
          "name": "",
          "type": "uint256"
        }
      ],
      "stateMutability": "view",
      "type": "function"
    },
    {
      "inputs": [],
      "name": "getInterval",
      "outputs": [
        {
          "internalType": "uint256",
          "name": "",
          "type": "uint256"
        }
      ],
      "stateMutability": "view",
      "type": "function"
    },
    {
      "inputs": [],
      "name": "getKeyHash",
      "outputs": [
        {
          "internalType": "bytes32",
          "name": "",
          "type": "bytes32"
        }
      ],
      "stateMutability": "view",
      "type": "function"
    },
    {
      "inputs": [],
      "name": "getLastProcessedTokenId",
      "outputs": [
        {
          "internalType": "uint256",
          "name": "",
          "type": "uint256"
        }
      ],
      "stateMutability": "view",
      "type": "function"
    },
    {
      "inputs": [],
      "name": "getLastTimestamp",
      "outputs": [
        {
          "internalType": "uint256",
          "name": "",
          "type": "uint256"
        }
      ],
      "stateMutability": "view",
      "type": "function"
    },
    {
      "inputs": [],
      "name": "getLethargicImageUri",
      "outputs": [
        {
          "internalType": "string",
          "name": "",
          "type": "string"
        }
      ],
      "stateMutability": "view",
      "type": "function"
    },
    {
      "inputs": [],
      "name": "getNeutralImageUri",
      "outputs": [
        {
          "internalType": "string",
          "name": "",
          "type": "string"
        }
      ],
      "stateMutability": "view",
      "type": "function"
    },
    {
      "inputs": [],
      "name": "getNumWords",
      "outputs": [
        {
          "internalType": "uint16",
          "name": "",
          "type": "uint16"
        }
      ],
      "stateMutability": "pure",
      "type": "function"
    },
    {
      "inputs": [],
      "name": "getOwner",
      "outputs": [
        {
          "internalType": "address",
          "name": "",
          "type": "address"
        }
      ],
      "stateMutability": "view",
      "type": "function"
    },
    {
      "inputs": [],
      "name": "getRequestConfirmations",
      "outputs": [
        {
          "internalType": "uint16",
          "name": "",
          "type": "uint16"
        }
      ],
      "stateMutability": "pure",
      "type": "function"
    },
    {
      "inputs": [],
      "name": "getSadImageUri",
      "outputs": [
        {
          "internalType": "string",
          "name": "",
          "type": "string"
        }
      ],
      "stateMutability": "view",
      "type": "function"
    },
    {
      "inputs": [],
      "name": "getSadToleranceInterval",
      "outputs": [
        {
          "internalType": "uint256",
          "name": "",
          "type": "uint256"
        }
      ],
      "stateMutability": "view",
      "type": "function"
    },
    {
      "inputs": [],
      "name": "getSleepToleranceInterval",
      "outputs": [
        {
          "internalType": "uint256",
          "name": "",
          "type": "uint256"
        }
      ],
      "stateMutability": "view",
      "type": "function"
    },
    {
      "inputs": [],
      "name": "getStinkyImageUri",
      "outputs": [
        {
          "internalType": "string",
          "name": "",
          "type": "string"
        }
      ],
      "stateMutability": "view",
      "type": "function"
    },
    {
      "inputs": [],
      "name": "getStinkyToleranceInterval",
      "outputs": [
        {
          "internalType": "uint256",
          "name": "",
          "type": "uint256"
        }
      ],
      "stateMutability": "view",
      "type": "function"
    },
    {
      "inputs": [],
      "name": "getSubscriptionId",
      "outputs": [
        {
          "internalType": "uint256",
          "name": "",
          "type": "uint256"
        }
      ],
      "stateMutability": "view",
      "type": "function"
    },
    {
      "inputs": [],
      "name": "getTokenCounter",
      "outputs": [
        {
          "internalType": "uint256",
          "name": "",
          "type": "uint256"
        }
      ],
      "stateMutability": "view",
      "type": "function"
    },
    {
      "inputs": [
        {
          "internalType": "uint256",
          "name": "tokenId",
          "type": "uint256"
        }
      ],
      "name": "getTokenIdToPetStage",
      "outputs": [
        {
          "internalType": "enum Tamagotchi.PetStage",
          "name": "",
          "type": "uint8"
        }
      ],
      "stateMutability": "view",
      "type": "function"
    },
    {
      "inputs": [
        {
          "internalType": "uint256",
          "name": "tokenId",
          "type": "uint256"
        }
      ],
      "name": "getTokenIdToPetState",
      "outputs": [
        {
          "internalType": "enum Tamagotchi.PetState",
          "name": "",
          "type": "uint8"
        }
      ],
      "stateMutability": "view",
      "type": "function"
    },
    {
      "inputs": [
        {
          "internalType": "uint256",
          "name": "tokenId",
          "type": "uint256"
        }
      ],
      "name": "getTokenIdToPetStats",
      "outputs": [
        {
          "components": [
            {
              "internalType": "uint256",
              "name": "hunger",
              "type": "uint256"
            },
            {
              "internalType": "uint256",
              "name": "happiness",
              "type": "uint256"
            },
            {
              "internalType": "uint256",
              "name": "cleanliness",
              "type": "uint256"
            },
            {
              "internalType": "uint256",
              "name": "entertainment",
              "type": "uint256"
            },
            {
              "internalType": "uint256",
              "name": "energy",
              "type": "uint256"
            }
          ],
          "internalType": "struct Tamagotchi.PetStats",
          "name": "",
          "type": "tuple"
        }
      ],
      "stateMutability": "view",
      "type": "function"
    },
    {
      "inputs": [
        {
          "internalType": "uint256",
          "name": "tokenId",
          "type": "uint256"
        }
      ],
      "name": "getTokenIdToPetTimestamps",
      "outputs": [
        {
          "components": [
            {
              "internalType": "uint256",
              "name": "fedAt",
              "type": "uint256"
            },
            {
              "internalType": "uint256",
              "name": "cuddledAt",
              "type": "uint256"
            },
            {
              "internalType": "uint256",
              "name": "bathedAt",
              "type": "uint256"
            },
            {
              "internalType": "uint256",
              "name": "playedAt",
              "type": "uint256"
            },
            {
              "internalType": "uint256",
              "name": "sleptAt",
              "type": "uint256"
            },
            {
              "internalType": "uint256",
              "name": "grewAt",
              "type": "uint256"
            },
            {
              "internalType": "uint256",
              "name": "mintedAt",
              "type": "uint256"
            }
          ],
          "internalType": "struct Tamagotchi.PetTimestamps",
          "name": "",
          "type": "tuple"
        }
      ],
      "stateMutability": "view",
      "type": "function"
    },
    {
      "inputs": [
        {
          "internalType": "uint256",
          "name": "tokenId",
          "type": "uint256"
        }
      ],
      "name": "getTokenIdToPetsAge",
      "outputs": [
        {
          "internalType": "uint256",
          "name": "",
          "type": "uint256"
        }
      ],
      "stateMutability": "view",
      "type": "function"
    },
    {
      "inputs": [],
      "name": "getVrfCoordinator",
      "outputs": [
        {
          "internalType": "address",
          "name": "",
          "type": "address"
        }
      ],
      "stateMutability": "view",
      "type": "function"
    },
    {
      "inputs": [
        {
          "internalType": "address",
          "name": "owner",
          "type": "address"
        },
        {
          "internalType": "address",
          "name": "operator",
          "type": "address"
        }
      ],
      "name": "isApprovedForAll",
      "outputs": [
        {
          "internalType": "bool",
          "name": "",
          "type": "bool"
        }
      ],
      "stateMutability": "view",
      "type": "function"
    },
    {
      "inputs": [],
      "name": "mintNft",
      "outputs": [],
      "stateMutability": "nonpayable",
      "type": "function"
    },
    {
      "inputs": [],
      "name": "name",
      "outputs": [
        {
          "internalType": "string",
          "name": "",
          "type": "string"
        }
      ],
      "stateMutability": "view",
      "type": "function"
    },
    {
      "inputs": [],
      "name": "owner",
      "outputs": [
        {
          "internalType": "address",
          "name": "",
          "type": "address"
        }
      ],
      "stateMutability": "view",
      "type": "function"
    },
    {
      "inputs": [
        {
          "internalType": "uint256",
          "name": "tokenId",
          "type": "uint256"
        }
      ],
      "name": "ownerOf",
      "outputs": [
        {
          "internalType": "address",
          "name": "",
          "type": "address"
        }
      ],
      "stateMutability": "view",
      "type": "function"
    },
    {
      "inputs": [
        {
          "internalType": "bytes",
          "name": "",
          "type": "bytes"
        }
      ],
      "name": "performUpkeep",
      "outputs": [],
      "stateMutability": "nonpayable",
      "type": "function"
    },
    {
      "inputs": [
        {
          "internalType": "uint256",
          "name": "tokenId",
          "type": "uint256"
        }
      ],
      "name": "play",
      "outputs": [],
      "stateMutability": "nonpayable",
      "type": "function"
    },
    {
      "inputs": [
        {
          "internalType": "uint256",
          "name": "requestId",
          "type": "uint256"
        },
        {
          "internalType": "uint256[]",
          "name": "randomWords",
          "type": "uint256[]"
        }
      ],
      "name": "rawFulfillRandomWords",
      "outputs": [],
      "stateMutability": "nonpayable",
      "type": "function"
    },
    {
      "inputs": [],
      "name": "requestRandomWords",
      "outputs": [],
      "stateMutability": "nonpayable",
      "type": "function"
    },
    {
      "inputs": [],
      "name": "s_vrfCoordinator",
      "outputs": [
        {
          "internalType": "contract IVRFCoordinatorV2Plus",
          "name": "",
          "type": "address"
        }
      ],
      "stateMutability": "view",
      "type": "function"
    },
    {
      "inputs": [
        {
          "internalType": "address",
          "name": "from",
          "type": "address"
        },
        {
          "internalType": "address",
          "name": "to",
          "type": "address"
        },
        {
          "internalType": "uint256",
          "name": "tokenId",
          "type": "uint256"
        }
      ],
      "name": "safeTransferFrom",
      "outputs": [],
      "stateMutability": "nonpayable",
      "type": "function"
    },
    {
      "inputs": [
        {
          "internalType": "address",
          "name": "from",
          "type": "address"
        },
        {
          "internalType": "address",
          "name": "to",
          "type": "address"
        },
        {
          "internalType": "uint256",
          "name": "tokenId",
          "type": "uint256"
        },
        {
          "internalType": "bytes",
          "name": "data",
          "type": "bytes"
        }
      ],
      "name": "safeTransferFrom",
      "outputs": [],
      "stateMutability": "nonpayable",
      "type": "function"
    },
    {
      "inputs": [
        {
          "internalType": "address",
          "name": "operator",
          "type": "address"
        },
        {
          "internalType": "bool",
          "name": "approved",
          "type": "bool"
        }
      ],
      "name": "setApprovalForAll",
      "outputs": [],
      "stateMutability": "nonpayable",
      "type": "function"
    },
    {
      "inputs": [
        {
          "internalType": "address",
          "name": "_vrfCoordinator",
          "type": "address"
        }
      ],
      "name": "setCoordinator",
      "outputs": [],
      "stateMutability": "nonpayable",
      "type": "function"
    },
    {
      "inputs": [
        {
          "internalType": "uint256",
          "name": "tokenId",
          "type": "uint256"
        }
      ],
      "name": "sleep",
      "outputs": [],
      "stateMutability": "nonpayable",
      "type": "function"
    },
    {
      "inputs": [
        {
          "internalType": "bytes4",
          "name": "interfaceId",
          "type": "bytes4"
        }
      ],
      "name": "supportsInterface",
      "outputs": [
        {
          "internalType": "bool",
          "name": "",
          "type": "bool"
        }
      ],
      "stateMutability": "view",
      "type": "function"
    },
    {
      "inputs": [],
      "name": "symbol",
      "outputs": [
        {
          "internalType": "string",
          "name": "",
          "type": "string"
        }
      ],
      "stateMutability": "view",
      "type": "function"
    },
    {
      "inputs": [
        {
          "internalType": "uint256",
          "name": "tokenId",
          "type": "uint256"
        }
      ],
      "name": "tokenURI",
      "outputs": [
        {
          "internalType": "string",
          "name": "",
          "type": "string"
        }
      ],
      "stateMutability": "view",
      "type": "function"
    },
    {
      "inputs": [
        {
          "internalType": "address",
          "name": "from",
          "type": "address"
        },
        {
          "internalType": "address",
          "name": "to",
          "type": "address"
        },
        {
          "internalType": "uint256",
          "name": "tokenId",
          "type": "uint256"
        }
      ],
      "name": "transferFrom",
      "outputs": [],
      "stateMutability": "nonpayable",
      "type": "function"
    },
    {
      "inputs": [
        {
          "internalType": "address",
          "name": "to",
          "type": "address"
        }
      ],
      "name": "transferOwnership",
      "outputs": [],
      "stateMutability": "nonpayable",
      "type": "function"
    }
  ],
  "bytecode": "0x6103c06040523461112c57614eac8038036103a0526100206103a051611130565b906103a051908239610300816103a0518101031261112c578051610300526020810151610320526040810151606082015190608083015160a084015160c085015160e0860151610100870151610120880151610140890151906101608a0151926101808b0151946101a08c01519660018060a01b038816880361112c578c986101e06101c08b01519a01519a63ffffffff8c168c0361112c576102008f01516001600160401b03811161112c578f6100e3610220926103a0518301908301611155565b6102c05201516001600160401b03811161112c578f61010d610240926103a0518301908301611155565b6103805201516001600160401b03811161112c578f610137610260926103a0518301908301611155565b6103605201516001600160401b03811161112c578f610161610280926103a0518301908301611155565b6103405201516001600160401b03811161112c578f61018b6102a0926103a0518301908301611155565b6102e05201519d6001600160401b038f1161112c578f9e8f906103a05182019101906101b691611155565b9f6102c00151600160401b60019003811161112c578f6101dd916103a05182019101611155565b9e6102e08101519060018060401b03821161112c57610203916103a05182019101611155565b9d5f6102a05260406102a05261021b6102a051611130565b600a81526954616d61676f7463686960b01b60208201526102a05161023f90611130565b6003815262544d4760e81b6020820152815190916001600160401b0382116108c7575f5490600182811c92168015611122575b60208310146108a95781601f8493116110b5575b50602090601f8311600114611052575f92611047575b50508160011b915f199060031b1c1916175f555b8051906001600160401b0382116108c75760015490600182811c9216801561103d575b60208310146108a95781601f849311610fcf575b50602090601f8311600114610f69575f92610f5e575b50508160011b915f199060031b1c1916176001555b3315610f1757600680546001600160a01b031916331790556001600160a01b038c1615610f0857600880546001600160a01b0319166001600160a01b038e16179055610300516080526103205160a05260c05260e05261010052610120526101405261016052610180526101a0526101c0526101e05261022052610280526102405261026052336102005242600a555f600b556102c051516001600160401b0381116108c757600d54600181811c91168015610efe575b60208210146108a957601f8111610e9b575b50806020601f8211600114610e31575f91610e23575b508160011b915f199060031b1c191617600d555b61038051516001600160401b0381116108c757600e54600181811c91168015610e19575b60208210146108a957601f8111610db6575b50806020601f8211600114610d4c575f91610d3e575b508160011b915f199060031b1c191617600e555b61036051516001600160401b0381116108c757600f54600181811c91168015610d34575b60208210146108a957601f8111610cd1575b50806020601f8211600114610c67575f91610c59575b508160011b915f199060031b1c191617600f555b61034051516001600160401b0381116108c757601054600181811c91168015610c4f575b60208210146108a957601f8111610bec575b50806020601f8211600114610b82575f91610b74575b508160011b915f199060031b1c1916176010555b6102e051516001600160401b0381116108c757601154600181811c91168015610b6a575b60208210146108a957601f8111610b07575b50806020601f8211600114610a9d575f91610a8f575b508160011b915f199060031b1c1916176011555b82516001600160401b0381116108c757601254600181811c91168015610a85575b60208210146108a957601f8111610a22575b506020601f82116001146109bf57819293945f926109b4575b50508160011b915f199060031b1c1916176012555b81516001600160401b0381116108c757601354600181811c911680156109aa575b60208210146108a957601f8111610947575b50602092601f82116001146108e657928192935f926108db575b50508160011b915f199060031b1c1916176013555b80516001600160401b0381116108c757601454600181811c911680156108bd575b60208210146108a957601f8111610846575b50602091601f82116001146107e6579181925f926107db575b50508160011b915f199060031b1c1916176014555b5f6009556102a05151613d0590816111a78239608051818181611b3601528181611e3001526122d7015260a051818181611a410152612312015260c0518181816107910152612333015260e0518181816123550152612b88015261010051818181611ced015261237701526101205181818161222401526123990152610140518181816123bb01526129000152610160518181816123dc0152612c090152610180518181816106de01526123fe01526101a051818181612279015261244201526101c051818181611cb3015261242001526101e0518181816117a901526124640152610200518181816107c60152611c6d0152610220518181816108990152610a6501526102405181818161087101526129570152610260518181816108d20152610a2a01526102805181612c410152f35b015190505f80610694565b601f1982169260145f52805f20915f5b85811061082e57508360019510610816575b505050811b016014556106a9565b01515f1960f88460031b161c191690555f8080610808565b919260206001819286850151815501940192016107f6565b60145f527fce6d7b5282bd9a3661ae061feed1dbda4e52ab073b1f9285be6e155d9c38d4ec601f830160051c8101916020841061089f575b601f0160051c01905b818110610894575061067b565b5f8155600101610887565b909150819061087e565b634e487b7160e01b5f52602260045260245ffd5b90607f1690610669565b634e487b7160e01b5f52604160045260245ffd5b015190505f80610633565b601f1982169360135f52805f20915f5b86811061092f5750836001959610610917575b505050811b01601355610648565b01515f1960f88460031b161c191690555f8080610909565b919260206001819286850151815501940192016108f6565b60135f527f66de8ffda797e3de9c05e8fc57b3bf0ec28a930d40b0d285d93c06501cf6a090601f830160051c810191602084106109a0575b601f0160051c01905b8181106109955750610619565b5f8155600101610988565b909150819061097f565b90607f1690610607565b015190505f806105d1565b601f1982169060125f52805f20915f5b818110610a0a575095836001959697106109f2575b505050811b016012556105e6565b01515f1960f88460031b161c191690555f80806109e4565b9192602060018192868b0151815501940192016109cf565b60125f527fbb8a6a4669ba250d26cd7a459eca9d215f8307e33aebe50379bc5a3617ec3444601f830160051c81019160208410610a7b575b601f0160051c01905b818110610a7057506105b8565b5f8155600101610a63565b9091508190610a5a565b90607f16906105a6565b90506102e05101515f610571565b60115f9081528181209250601f198416905b818110610aec57509083600194939210610ad1575b5050811b01601155610585565b6102e05101515f1960f88460031b161c191690555f80610ac4565b9192602060018192866102e051015181550194019201610aaf565b60115f527f31ecc21a745e3968a04e9570e4425bc18fa8019c68028196b546d1669c200c68601f830160051c81019160208410610b60575b601f0160051c01905b818110610b55575061055b565b5f8155600101610b48565b9091508190610b3f565b90607f1690610549565b90506103405101515f610511565b60105f9081528181209250601f198416905b818110610bd157509083600194939210610bb6575b5050811b01601055610525565b6103405101515f1960f88460031b161c191690555f80610ba9565b91926020600181928661034051015181550194019201610b94565b60105f527f1b6847dc741a1b0cd08d278845f9d819d87b734759afb55fe2de5cb82a9ae672601f830160051c81019160208410610c45575b601f0160051c01905b818110610c3a57506104fb565b5f8155600101610c2d565b9091508190610c24565b90607f16906104e9565b90506103605101515f6104b1565b600f5f9081528181209250601f198416905b818110610cb657509083600194939210610c9b575b5050811b01600f556104c5565b6103605101515f1960f88460031b161c191690555f80610c8e565b91926020600181928661036051015181550194019201610c79565b600f5f527f8d1108e10bcb7c27dddfc02ed9d693a074039d026cf4ea4240b40f7d581ac802601f830160051c81019160208410610d2a575b601f0160051c01905b818110610d1f575061049b565b5f8155600101610d12565b9091508190610d09565b90607f1690610489565b90506103805101515f610451565b600e5f9081528181209250601f198416905b818110610d9b57509083600194939210610d80575b5050811b01600e55610465565b6103805101515f1960f88460031b161c191690555f80610d73565b91926020600181928661038051015181550194019201610d5e565b600e5f527fbb7b4a454dc3493923482f07822329ed19e8244eff582cc204f8554c3620c3fd601f830160051c81019160208410610e0f575b601f0160051c01905b818110610e04575061043b565b5f8155600101610df7565b9091508190610dee565b90607f1690610429565b90506102c05101515f6103f1565b600d5f9081528181209250601f198416905b818110610e8057509083600194939210610e65575b5050811b01600d55610405565b6102c05101515f1960f88460031b161c191690555f80610e58565b9192602060018192866102c051015181550194019201610e43565b600d5f527fd7b6990105719101dabeb77144f2a3385c8033acd3af97e9423a695e81ad1eb5601f830160051c81019160208410610ef4575b601f0160051c01905b818110610ee957506103db565b5f8155600101610edc565b9091508190610ed3565b90607f16906103c9565b63d92e233d60e01b5f5260045ffd5b6102a0515162461bcd60e51b815260206004820152601860248201527f43616e6e6f7420736574206f776e657220746f207a65726f00000000000000006044820152606490fd5b015190505f806102fd565b60015f9081528281209350601f198516905b818110610fb75750908460019594939210610f9f575b505050811b01600155610312565b01515f1960f88460031b161c191690555f8080610f91565b92936020600181928786015181550195019301610f7b565b60015f529091507fb10e2d527612073b26eecdfd717e6a320cf44b4afac2b0732d9fcbe2b7fa0cf6601f840160051c81019160208510611033575b90601f859493920160051c01905b81811061102557506102e7565b5f8155849350600101611018565b909150819061100a565b91607f16916102d3565b015190505f8061029c565b5f8080528281209350601f198516905b81811061109d5750908460019594939210611085575b505050811b015f556102b0565b01515f1960f88460031b161c191690555f8080611078565b92936020600181928786015181550195019301611062565b5f80529091507f290decd9548b62a8d60345a988386fc84ba6bc95484008f6362f93160ef3e563601f840160051c81019160208510611118575b90601f859493920160051c01905b81811061110a5750610286565b5f81558493506001016110fd565b90915081906110ef565b91607f1691610272565b5f80fd5b6040519190601f01601f191682016001600160401b038111838210176108c757604052565b81601f8201121561112c578051906001600160401b0382116108c757611184601f8301601f1916602001611130565b928284526020838301011161112c57815f9260208093018386015e830101529056fe6080806040526004361015610012575f80fd5b5f3560e01c90816281d07e14612fee5750806301815a2114612ebc57806301ffc9a714612e4e57806306fdde0314612d96578063081812fc14612d5a578063095ea7b314612c705780630cb4a29d14612c2c5780630edd89a014612bf25780630f4c722314612bd5578063190e99a814612bab5780631d8cc34614612b715780631fe543e314612a6c57806323b872dd14612a555780632df36c961461297a578063331bf1251461294057806337899770146129235780633bcd87b1146128e957806342842e0e146128ba57806345231600146128105780634585e33b146122b95780634eebaec81461229c5780635352059f1461226257806353a2c19a1461224757806354c00c451461220d5780635e43a813146121525780635f1b0fd8146121375780636352211e14612107578063651c59da14611fd55780636898f82b14611ea35780636e02007d14611e865780636e04ff0d14611e0e57806370a0823114611dbd57806379ba509714611d105780637a1dbf7e14611cd65780638483b74714611c9c578063893d20e814611c585780638da5cb5b14611c305780638ea9811714611b5957806391ad27b414611b1f57806395d89b4114611a64578063984d0fc414611a2a5780639dd4d3f81461196f5780639eccacf614611947578063a22cb465146118ac578063b06e799a146117cc578063b5a0e4ca14611792578063b88d4fde146116fc578063bf3ac06f146116c6578063c0b1a143146116ab578063c2229fea14611343578063c30fd3f914611328578063c87b56dd14610aa3578063d4c14a0514610a88578063de3d9fb714610a4e578063de8be8e714610a0e578063e0c86289146107b4578063e50fc4fa1461077a578063e89eaa8a14610758578063e985e9c514610701578063f14e7d5d146106c7578063f2fde38b146105cd578063f59dfdfb146104aa578063f973134b146104775763fa9d8713146102db575f80fd5b34610473576020366003190112610473576004355f8181526002602052604090205461031390829033906001600160a01b03166135b2565b1561046457600b5481101561045657805f52601660205260ff60405f20541660038110156104425760021461043357805f5260186020526064600460405f2001541461042457805f526018602052600460405f20015490601e82018092116104105761039f7ff98679335ac375e07fd4a046fb3905abeb19befff9ddd5faa9c9e2c93fc3724d9261363d565b815f526018602052600460405f200155805f52601960205242600460405f2001556103dd6103cc8261365f565b825f52601760205260405f20613173565b5f81815260186020908152604091829020600401548251338152918201939093529081019190915280606081015b0390a1005b634e487b7160e01b5f52601160045260245ffd5b63a8d8f14960e01b5f5260045ffd5b63878c570d60e01b5f5260045ffd5b634e487b7160e01b5f52602160045260245ffd5b621960c960e71b5f5260045ffd5b63047a7c3760e41b5f5260045ffd5b5f80fd5b34610473575f366003190112610473576104a6610492613305565b604051918291602083526020830190613022565b0390f35b34610473576020366003190112610473576004355f818152600260205260409020546104e290829033906001600160a01b03166135b2565b1561046457600b5481101561045657805f52601660205260ff60405f20541660038110156104425760021461043357805f526018602052606460405f2054146105be57805f52601860205260405f205490601e8201809211610410576105687fd85a3ae03597a7161610eb31fe93f0bec0fa8b75f3aa371c7bd4511d077d5fe79261363d565b815f52601860205260405f2055805f5260196020524260405f205561058f6103cc8261365f565b5f818152601860209081526040918290205482513381529182019390935290810191909152806060810161040b565b63a1c30edf60e01b5f5260045ffd5b34610473576020366003190112610473576105e6613046565b6006546001600160a01b03169033829003610689576001600160a01b03169033821461064457600780546001600160a01b031916831790557fed8889f560326eb138920d842192f0eb3dd22b4f139c87a2c57538e05bae12785f80a3005b60405162461bcd60e51b815260206004820152601760248201527f43616e6e6f74207472616e7366657220746f2073656c660000000000000000006044820152606490fd5b60405162461bcd60e51b815260206004820152601660248201527527b7363c9031b0b63630b1363290313c9037bbb732b960511b6044820152606490fd5b34610473575f3660031901126104735760206040517f00000000000000000000000000000000000000000000000000000000000000008152f35b346104735760403660031901126104735761071a613046565b61072261305c565b9060018060a01b03165f52600560205260405f209060018060a01b03165f52602052602060ff60405f2054166040519015158152f35b34610473575f366003190112610473576020604051670de0b6b3a76400008152f35b34610473575f3660031901126104735760206040517f00000000000000000000000000000000000000000000000000000000000000008152f35b34610473575f366003190112610473577f00000000000000000000000000000000000000000000000000000000000000006001600160a01b031633036109ff57600854604051906001600160a01b03166020820167ffffffffffffffff8111838210176109eb576040525f82526040519163125fa26760e31b6020840152511515602483015260248252610849604483613135565b6040519160c083019183831067ffffffffffffffff8411176109eb5761ffff936020936040527f000000000000000000000000000000000000000000000000000000000000000081525f848201917f0000000000000000000000000000000000000000000000000000000000000000835261095260408201956003875263ffffffff60608401817f00000000000000000000000000000000000000000000000000000000000000001681528160808601916001835260a087019485526040519c8d9b8c9a8b99634d8e1c2f60e11b8b528f60048c01525160248b01525160448a01525116606488015251166084860152511660a48401525160c060c484015260e4830190613022565b03925af19081156109e0575f916109ad575b7fcc58b13ad3eab50626c6a6300b1d139cd6ebb1688a7cced9461c2f7e762665ee604083805f52601a602052815f20600160ff19825416179055815190815260016020820152a1005b90506020813d6020116109d8575b816109c860209383613135565b8101031261047357516040610964565b3d91506109bb565b6040513d5f823e3d90fd5b634e487b7160e01b5f52604160045260245ffd5b63217608b760e01b5f5260045ffd5b34610473575f36600319011261047357602060405163ffffffff7f0000000000000000000000000000000000000000000000000000000000000000168152f35b34610473575f3660031901126104735760206040517f00000000000000000000000000000000000000000000000000000000000000008152f35b34610473575f366003190112610473576104a66104926133b1565b34610473576020366003190112610473576004356060815f52601660205260ff60405f205416600381101561044257600203610ff657506040515f6014548060011c9160018216918215610fec575b602084108314610fd8578385528492908115610fb95750600114610f5a575b610b1d92500382613135565b905b604090815190610b2f8383613135565b601d825260208201937f646174613a6170706c69636174696f6e2f6a736f6e3b6261736536342c0000008552610b64826139fa565b90825f526018602052845f2060010154610b7d906139fa565b92805f526018602052855f2054610b93906139fa565b90805f526018602052865f2060030154610bac906139fa565b815f526018602052875f2060020154610bc4906139fa565b825f526018602052885f2060040154610bdc906139fa565b91835f526015602052895f2054610bf2906139fa565b935f526016602052895f205460ff16610c0a90613b42565b948a51988998757b226e616d65223a202254616d61676f74636869202360501b60208b01528051602081920160368c015e7f222c20226465736372697074696f6e223a22412063757465206f6e2d636861696036918b019182015273037102a30b6b0b3b7ba31b434903832ba171116160651b60568201526d2261747472696275746573223a5b60901b606a8201527f7b2274726169745f74797065223a2268617070696e657373222c2276616c7565607882015261111d60f11b60988201528151918290602001609a83015e01603601606481017f7d2c207b2274726169745f74797065223a2268756e676572222c2276616c7565905261111d60f11b608482015281516020819301608683015e01606401602281017f7d2c207b2274726169745f74797065223a22626f7265646f6d222c2276616c7590526232911d60e91b604282015281516020819301604583015e01602201602381017f7d2c207b2274726169745f74797065223a2268796769656e65222c2276616c7590526232911d60e91b604382015281516020819301604683015e01602301602381017f7d2c207b2274726169745f74797065223a22656e65726779222c2276616c7565905261111d60f11b604382015281516020819301604583015e01602301602281017f7d2c207b2274726169745f74797065223a22616765222c2276616c7565223a00905281516020819301604183015e01602201601f81017f7d2c207b2274726169745f74797065223a227374616765222c2276616c7565229052611d1160f11b603f82015281516020819301604183015e01601f016d113eae96101134b6b0b3b2911d1160911b602282015281516020819301603083015e0160220161227d60f01b600e82015203600e01601d1981018252600201610ea89082613135565b8251610eb5606082613135565b8381527f4142434445464748494a4b4c4d4e4f505152535455565758595a61626364656660208201527f6768696a6b6c6d6e6f707172737475767778797a303132333435363738392b2f81850152610f0c91613bdd565b8251938492518091602085015e820160208101915f83528051926020849201905e016020015f815203601f1981018352610f469083613135565b51809160208252602082016104a691613022565b5060145f90815290917fce6d7b5282bd9a3661ae061feed1dbda4e52ab073b1f9285be6e155d9c38d4ec5b818310610f9d575050906020610b1d92820101610b11565b6020919350806001915483858801015201910190918392610f85565b60209250610b1d94915060ff191682840152151560051b820101610b11565b634e487b7160e01b5f52602260045260245ffd5b92607f1692610af2565b815f52601760205260ff60405f2054166007811015610442576110e557506040515f600d548060011c91600182169182156110db575b602084108314610fd85783855284929081156110bc575060011461105d575b61105792500382613135565b90610b1f565b50600d5f90815290917fd7b6990105719101dabeb77144f2a3385c8033acd3af97e9423a695e81ad1eb55b8183106110a05750509060206110579282010161104b565b6020919350806001915483858801015201910190918392611088565b6020925061105794915060ff191682840152151560051b82010161104b565b92607f169261102c565b815f52601760205260ff60405f20541660078110156104425760010361110e5750611057613259565b815f52601760205260ff60405f205416600781101561044257600203611137575061105761318b565b815f52601760205260ff60405f20541660078110156104425760030361116057506110576133b1565b815f52601760205260ff60405f20541660078110156104425760040361123157506040515f6011548060011c9160018216918215611227575b602084108314610fd85783855284929081156110bc57506001146111c85761105792500382613135565b610b1f565b5060115f90815290917f31ecc21a745e3968a04e9570e4425bc18fa8019c68028196b546d1669c200c685b81831061120b5750509060206110579282010161104b565b60209193508060019154838588010152019101909183926111f3565b92607f1692611199565b815f52601760205260ff60405f20541660078110156104425760050361125a5750611057613305565b90805f52601760205260ff60405f2054166007811015610442576006036111c35790506040515f6013548060011c916001821691821561131e575b602084108314610fd85783855284929081156110bc57506001146112bf5761105792500382613135565b5060135f90815290917f66de8ffda797e3de9c05e8fc57b3bf0ec28a930d40b0d285d93c06501cf6a0905b8183106113025750509060206110579282010161104b565b60209193508060019154838588010152019101909183926112ea565b92607f1692611295565b34610473575f366003190112610473576104a6610492613259565b34610473575f36600319011261047357600b546040516020916113668383613135565b5f82523315611698575f8181526002845260409020546001600160a01b03168015159081611667575b335f8181526003875260408082208054600101905585825260028852812080546001600160a01b0319168317905584919083907fddf252ad1be2c89b69c2b068fc378daa952ba7f163c4a11628f55a4df523b3ef9080a45061165457333b611545575b61154083600b545f526016815260405f2060ff198154169055600b545f52601581525f6040812055600b545f526019815242600660405f200155600b545f526019815242600260405f200155600b545f526019815242600160405f200155600b545f52601981524260405f2055600b545f526019815242600560405f200155600b545f526019815242600360405f200155600b545f526019815242600460405f200155600b545f5260188152601e60405f2055600b545f52601881526046600160405f200155600b545f52601881526046600460405f200155600b545f52601881526014600260405f200155600b545f52601881526046600360405f200155600b545f526017815260405f20600560ff198254161790557ff2b290a76feb54be358b555507421d765609171aefa0646f109a653228ff81b86040600b549283825191338352820152a16135a4565b600b55005b61157f9183916040519384928392630a85bd0160e11b84523360048501525f60248501526044840152608060648401526084830190613022565b03815f335af15f9181611614575b506115e157503d156115d9573d906115a482613157565b916115b26040519384613135565b82523d5f8284013e5b815191826115d657633250574960e11b5f523360045260245ffd5b01fd5b6060906115bb565b6001600160e01b03191663757a42ff60e11b0161160157611540826113f2565b633250574960e11b5f523360045260245ffd5b9091508281813d831161164d575b61162c8183613135565b8101031261047357516001600160e01b03198116810361047357908361158d565b503d611622565b6339e3563760e11b5f525f60045260245ffd5b5f8381526004602052604080822080546001600160a01b031916905582825260038752902080545f1901905561138f565b633250574960e11b5f525f60045260245ffd5b34610473575f366003190112610473576104a661049261318b565b34610473576020366003190112610473576004355f52601660205260ff60405f2054166040516003821015610442576020918152f35b3461047357608036600319011261047357611715613046565b61171d61305c565b906044356064359267ffffffffffffffff841161047357366023850112156104735783600401359261174e84613157565b9361175c6040519586613135565b8085523660248288010111610473576020815f9260246117909901838901378601015261178a83838361345d565b33613892565b005b34610473575f3660031901126104735760206040517f00000000000000000000000000000000000000000000000000000000000000008152f35b34610473575f366003190112610473576040515f6011548060011c906001811680156118a2575b602083108114610fd85782855290811561187e5750600114611820575b6104a68361049281850382613135565b60115f9081527f31ecc21a745e3968a04e9570e4425bc18fa8019c68028196b546d1669c200c68939250905b80821061186457509091508101602001610492611810565b91926001816020925483858801015201910190929161184c565b60ff191660208086019190915291151560051b840190910191506104929050611810565b91607f16916117f3565b34610473576040366003190112610473576118c5613046565b60243590811515809203610473576001600160a01b031690811561193457335f52600560205260405f20825f5260205260405f2060ff1981541660ff83161790556040519081527f17307eab39ab6107e8899845ad3d59bd9653f200f220920489ca2b5937696c3160203392a3005b50630b61174360e31b5f5260045260245ffd5b34610473575f366003190112610473576008546040516001600160a01b039091168152602090f35b34610473575f366003190112610473576040515f6013548060011c90600181168015611a20575b602083108114610fd85782855290811561187e57506001146119c2576104a68361049281850382613135565b60135f9081527f66de8ffda797e3de9c05e8fc57b3bf0ec28a930d40b0d285d93c06501cf6a090939250905b808210611a0657509091508101602001610492611810565b9192600181602092548385880101520191019092916119ee565b91607f1691611996565b34610473575f3660031901126104735760206040517f00000000000000000000000000000000000000000000000000000000000000008152f35b34610473575f366003190112610473576040515f6001548060011c90600181168015611b15575b602083108114610fd85782855290811561187e5750600114611ab7576104a68361049281850382613135565b60015f9081527fb10e2d527612073b26eecdfd717e6a320cf44b4afac2b0732d9fcbe2b7fa0cf6939250905b808210611afb57509091508101602001610492611810565b919260018160209254838588010152019101909291611ae3565b91607f1691611a8b565b34610473575f3660031901126104735760206040517f00000000000000000000000000000000000000000000000000000000000000008152f35b3461047357602036600319011261047357611b72613046565b6006546001600160a01b03163381141580611c1b575b611bf157506001600160a01b03168015611be2576020817fd1a6a14209a385a964d036e404cb5cfb71f4000cdb03c9366292430787261be6926bffffffffffffffffffffffff60a01b6008541617600855604051908152a1005b63d92e233d60e01b5f5260045ffd5b60085463061db9c160e01b5f908152336004526024929092526001600160a01b0316604452606490fd5b506008546001600160a01b0316331415611b88565b34610473575f366003190112610473576006546040516001600160a01b039091168152602090f35b34610473575f366003190112610473576040517f00000000000000000000000000000000000000000000000000000000000000006001600160a01b03168152602090f35b34610473575f3660031901126104735760206040517f00000000000000000000000000000000000000000000000000000000000000008152f35b34610473575f3660031901126104735760206040517f00000000000000000000000000000000000000000000000000000000000000008152f35b34610473575f366003190112610473576007546001600160a01b0381163303611d7f5760068054336001600160a01b03198083168217909355929091166007556001600160a01b03167f8be0079c531659141344cd1fd0a4f28419497f9722a3daafe3b4186f6b6457e05f80a3005b60405162461bcd60e51b815260206004820152601660248201527526bab9ba10313290383937b837b9b2b21037bbb732b960511b6044820152606490fd5b34610473576020366003190112610473576001600160a01b03611dde613046565b168015611dfb575f526003602052602060405f2054604051908152f35b6322718ad960e21b5f525f60045260245ffd5b3461047357611e1c366130ac565b5050611e2a600a5442613597565b604051907f00000000000000000000000000000000000000000000000000000000000000001081526040602082015260208160406060518082840152806080606085015e5f8382018301850152601f01601f1916820101030190f35b34610473575f366003190112610473576020600b54604051908152f35b34610473576020366003190112610473576004355f81815260026020526040902054611edb90829033906001600160a01b03166135b2565b1561046457600b5481101561045657805f52601660205260ff60405f20541660038110156104425760021461043357805f5260186020526064600360405f20015414611fc657805f526018602052600360405f20015490601e820180921161041057611f677f3c8c305e373784f6b82578200176a1ebdc625fe42d95cb47a551a58ed71116e09261363d565b815f526018602052600360405f200155805f52601960205242600360405f200155611f946103cc8261365f565b5f818152601860209081526040918290206003015482513381529182019390935290810191909152806060810161040b565b63b16a272560e01b5f5260045ffd5b34610473576020366003190112610473576004355f8181526002602052604090205461200d90829033906001600160a01b03166135b2565b1561046457600b5481101561045657805f52601660205260ff60405f20541660038110156104425760021461043357805f5260186020526064600260405f200154146120f857805f526018602052600260405f20015490601e8201809211610410576120997fc8264fa3e069a8289073805251ac08944d62d5e100baf1652f03fe30313c2fac9261363d565b815f526018602052600260405f200155805f52601960205242600260405f2001556120c66103cc8261365f565b5f818152601860209081526040918290206002015482513381529182019390935290810191909152806060810161040b565b638b629b9f60e01b5f5260045ffd5b3461047357602036600319011261047357602061212560043561377e565b6040516001600160a01b039091168152f35b34610473575f36600319011261047357602060405160038152f35b34610473575f366003190112610473576040515f600d548060011c90600181168015612203575b602083108114610fd85782855290811561187e57506001146121a5576104a68361049281850382613135565b600d5f9081527fd7b6990105719101dabeb77144f2a3385c8033acd3af97e9423a695e81ad1eb5939250905b8082106121e957509091508101602001610492611810565b9192600181602092548385880101520191019092916121d1565b91607f1691612179565b34610473575f3660031901126104735760206040517f00000000000000000000000000000000000000000000000000000000000000008152f35b34610473575f36600319011261047357602060405160018152f35b34610473575f3660031901126104735760206040517f00000000000000000000000000000000000000000000000000000000000000008152f35b34610473575f366003190112610473576020600954604051908152f35b34610473576122c7366130ac565b50506122d5600a5442613597565b7f000000000000000000000000000000000000000000000000000000000000000010156128015742600a55600954600b5411156127f8575b6009547f00000000000000000000000000000000000000000000000000000000000000007f0000000000000000000000000000000000000000000000000000000000000000917f0000000000000000000000000000000000000000000000000000000000000000927f0000000000000000000000000000000000000000000000000000000000000000937f0000000000000000000000000000000000000000000000000000000000000000947f00000000000000000000000000000000000000000000000000000000000000007f0000000000000000000000000000000000000000000000000000000000000000967f0000000000000000000000000000000000000000000000000000000000000000927f0000000000000000000000000000000000000000000000000000000000000000947f0000000000000000000000000000000000000000000000000000000000000000967f0000000000000000000000000000000000000000000000000000000000000000985b600b54600954600a81018091116104105761249f9161364e565b8110156127e557805f52601660205260ff60405f2054166003811015610442576002146127dd57805f5260196020526124ea60405f2054825f52601860205260405f2054908d6137b2565b5f828152601860208181526040808420948555601982529092204281556001908101549190925291015461251e91846137b2565b5f82815260186020818152604080842060018181018790556019845291909420948555429085015560049384015491905291015461255c91856137b2565b5f828152601860208181526040808420600481810196909655601983529320429481019490945560039384015491905291015461259991866137b2565b5f82815260186020818152604080842060038181019690965560198352932042948101949094556002938401549190529101546125d691876137b2565b815f526018602052600260405f200155805f52601960205242600260405f2001556126036103cc8261365f565b805f5260196020528561261d600560405f20015442613597565b1161271a575b806001915f52601860205261264c8d60405f2054835f52601960205260405f205491428561381a565b61271557805f52601860205261267a8260405f200154825f5260196020528360405f200154908a428561381a565b61271557805f5260186020526126aa600360405f200154825f526019602052600360405f200154908b428561381a565b61271557805f5260186020526126da600260405f200154825f526019602052600260405f200154908c428561381a565b61271557805f52601860205261270a600460405f200154825f526019602052600460405f200154908d428561381a565b612715575b01612485565b61270f565b805f52601960205242600560405f200155805f52601560205260405f2061274181546135a4565b9055805f52601560205261275c60405f2054600c54906137e6565b815f52601660205260405f209060038110156104425760ff80198354169116179055805f52601660205260ff60405f205416906003821015610442576002600192146127a9579050612623565b7fdcec5b82f11ced23696788e67220727fb050fbbfa0e5975b61fc5f0a009922d860408051838152426020820152a161270f565b60019061270f565b600954600a810180911161041057600955005b5f60095561230d565b632fe4a35560e11b5f5260045ffd5b34610473576020366003190112610473575f608060405161283081613119565b82815282602082015282604082015282606082015201526004355f52601860205260a060405f2060405161286381613119565b81549182825260018101546020830190815260028201549060408401918252608060046003850154946060870195865201549401938452604051948552516020850152516040840152516060830152516080820152f35b34610473576117906128cb36613072565b90604051926128db602085613135565b5f845261178a83838361345d565b34610473575f3660031901126104735760206040517f00000000000000000000000000000000000000000000000000000000000000008152f35b34610473575f366003190112610473576020600a54604051908152f35b34610473575f3660031901126104735760206040517f00000000000000000000000000000000000000000000000000000000000000008152f35b34610473576020366003190112610473575f60c060405161299a816130fd565b8281528260208201528260408201528260608201528260808201528260a082015201526004355f52601960205260e060405f206040516129d9816130fd565b815491828252600181015460208301908152600282015460408401908152600383015490606085019182526004840154926080860193845260c0600660058701549660a08901978852015496019586526040519687525160208701525160408601525160608501525160808401525160a08301525160c0820152f35b3461047357611790612a6636613072565b9161345d565b346104735760403660031901126104735760043560243567ffffffffffffffff8111610473573660238201121561047357806004013567ffffffffffffffff8111610473573660248260051b84010111610473576008546001600160a01b031633819003612b5b5750825f52601a60205260ff60405f20541615612b4c5715612b38576024600f9101351660058101809111610410577f4e2747c894985d7a2114165cf73333afefb9cb5651dc9192a03295533ff282eb9181604092600c5582519182526020820152a1005b634e487b7160e01b5f52603260045260245ffd5b631444a26760e21b5f5260045ffd5b63073e64fd60e21b5f523360045260245260445ffd5b34610473575f3660031901126104735760206040517f00000000000000000000000000000000000000000000000000000000000000008152f35b34610473576020366003190112610473576004355f526015602052602060405f2054604051908152f35b34610473575f366003190112610473576020600c54604051908152f35b34610473575f3660031901126104735760206040517f00000000000000000000000000000000000000000000000000000000000000008152f35b34610473575f366003190112610473576040517f00000000000000000000000000000000000000000000000000000000000000006001600160a01b03168152602090f35b3461047357604036600319011261047357612c89613046565b602435612c958161377e565b33151580612d47575b80612d1a575b612d075781906001600160a01b0384811691167f8c5be1e5ebec7d5bd14f71427d1e84f3dd0314c0f7b2291e5b200ac8c7c3b9255f80a45f90815260046020526040902080546001600160a01b0319166001600160a01b03909216919091179055005b63a9fbf51f60e01b5f523360045260245ffd5b506001600160a01b0381165f90815260056020908152604080832033845290915290205460ff1615612ca4565b506001600160a01b038116331415612c9e565b3461047357602036600319011261047357600435612d778161377e565b505f526004602052602060018060a01b0360405f205416604051908152f35b34610473575f366003190112610473576040515f5f548060011c90600181168015612e44575b602083108114610fd85782855290811561187e5750600114612de8576104a68361049281850382613135565b5f8080527f290decd9548b62a8d60345a988386fc84ba6bc95484008f6362f93160ef3e563939250905b808210612e2a57509091508101602001610492611810565b919260018160209254838588010152019101909291612e12565b91607f1691612dbc565b346104735760203660031901126104735760043563ffffffff60e01b8116809103610473576020906380ac58cd60e01b8114908115612eab575b8115612e9a575b506040519015158152f35b6301ffc9a760e01b14905082612e8f565b635b5e139f60e01b81149150612e88565b34610473576020366003190112610473576004355f81815260026020526040902054612ef490829033906001600160a01b03166135b2565b1561046457600b5481101561045657805f52601660205260ff60405f20541660038110156104425760021461043357805f5260186020526064600160405f20015414612fdf57805f526018602052600160405f20015490601e820180921161041057612f807fe2b49305a8b3d55a0ef566021444b2e1c353b29d39b1703063c0f0a5830ebf289261363d565b815f526018602052600160405f200155805f52601960205242600160405f200155612fad6103cc8261365f565b5f818152601860209081526040918290206001015482513381529182019390935290810191909152806060810161040b565b630f75530d60e01b5f5260045ffd5b34610473576020366003190112610473576004355f52601760205260ff60405f205416906007821015610442576020918152f35b805180835260209291819084018484015e5f828201840152601f01601f1916010190565b600435906001600160a01b038216820361047357565b602435906001600160a01b038216820361047357565b6060906003190112610473576004356001600160a01b038116810361047357906024356001600160a01b0381168103610473579060443590565b9060206003198301126104735760043567ffffffffffffffff811161047357826023820112156104735780600401359267ffffffffffffffff84116104735760248483010111610473576024019190565b60e0810190811067ffffffffffffffff8211176109eb57604052565b60a0810190811067ffffffffffffffff8211176109eb57604052565b90601f8019910116810190811067ffffffffffffffff8211176109eb57604052565b67ffffffffffffffff81116109eb57601f01601f191660200190565b9060078110156104425760ff80198354169116179055565b604051905f600f548060011c916001821691821561324f575b602084108314610fd857838652859290811561323057506001146131d1575b6131cf92500383613135565b565b50600f5f90815290917f8d1108e10bcb7c27dddfc02ed9d693a074039d026cf4ea4240b40f7d581ac8025b8183106132145750509060206131cf928201016131c3565b60209193508060019154838589010152019101909184926131fc565b602092506131cf94915060ff191682840152151560051b8201016131c3565b92607f16926131a4565b604051905f600e548060011c91600182169182156132fb575b602084108314610fd8578386528592908115613230575060011461329c576131cf92500383613135565b50600e5f90815290917fbb7b4a454dc3493923482f07822329ed19e8244eff582cc204f8554c3620c3fd5b8183106132df5750509060206131cf928201016131c3565b60209193508060019154838589010152019101909184926132c7565b92607f1692613272565b604051905f6012548060011c91600182169182156133a7575b602084108314610fd85783865285929081156132305750600114613348576131cf92500383613135565b5060125f90815290917fbb8a6a4669ba250d26cd7a459eca9d215f8307e33aebe50379bc5a3617ec34445b81831061338b5750509060206131cf928201016131c3565b6020919350806001915483858901015201910190918492613373565b92607f169261331e565b604051905f6010548060011c9160018216918215613453575b602084108314610fd857838652859290811561323057506001146133f4576131cf92500383613135565b5060105f90815290917f1b6847dc741a1b0cd08d278845f9d819d87b734759afb55fe2de5cb82a9ae6725b8183106134375750509060206131cf928201016131c3565b602091935080600191548385890101520191019091849261341f565b92607f16926133ca565b6001600160a01b0390911691908215611698575f828152600260205260409020546001600160a01b031692829033613551575b8461351e575b805f52600360205260405f2060018154019055815f52600260205260405f20816bffffffffffffffffffffffff60a01b825416179055847fddf252ad1be2c89b69c2b068fc378daa952ba7f163c4a11628f55a4df523b3ef5f80a46001600160a01b031680830361350657505050565b6364283d7b60e01b5f5260045260245260445260645ffd5b5f82815260046020526040902080546001600160a01b0319169055845f52600360205260405f205f198154019055613496565b9061355d9033866135b2565b15613569578290613490565b828461358157637e27328960e01b5f5260045260245ffd5b63177e802f60e01b5f523360045260245260445ffd5b9190820391821161041057565b5f1981146104105760010190565b6001600160a01b039091168015159291836135ce575b50505090565b6001600160a01b03168082149350909190831561361a575b5082156135f8575b50505f80806135c8565b5f908152600460205260408120546001600160a01b03169091149150806135ee565b9092505f52600560205260405f20815f5260205260ff60405f205416915f6135e6565b606481116136485790565b50606490565b9080821161365a575090565b905090565b5f90815260186020526040812080546001820154600483015460038401546002909401549193606493909190601e81111580613775575b613769575b50601e85111580613760575b613754575b60288111158061374b575b61373f575b50601e81111580613736575b61372a575b50602881111580613721575b613715575b50602882119182613709575b826136ff575b50506136f95790565b50600290565b1090505f806136f0565b603c81111592506136ea565b6005935090505f6136de565b508181106136d9565b6004945091505f6136cd565b508281106136c8565b6006955092505f6136bc565b508381106136b7565b600195508493506136ac565b508385106136a7565b6003965093505f61369b565b50848110613696565b5f818152600260205260409020546001600160a01b03169081156137a0575090565b637e27328960e01b5f5260045260245ffd5b91906137be9042613597565b9182810292818404149015171561041057670de0b6b3a76400006137e3920490613597565b90565b90600382119182156138135782613808575b505061380357600290565b600190565b111590505f806137f8565b5050505f90565b9391909215918261387e575b50501561387857816040917fdcec5b82f11ced23696788e67220727fb050fbbfa0e5975b61fc5f0a009922d8935f526016602052825f20600260ff1982541617905582519182526020820152a1600190565b50505f90565b61388a91925083613597565b115f80613826565b823b6138a0575b5050505050565b604051630a85bd0160e11b81526001600160a01b0391821660048201529181166024830152604482019390935260806064820152911691602090829081906138ec906084830190613022565b03815f865af15f9181613983575b5061394f57503d15613948573d61391081613157565b9061391e6040519283613135565b81523d5f602083013e5b805190816139435782633250574960e11b5f5260045260245ffd5b602001fd5b6060613928565b6001600160e01b03191663757a42ff60e11b0161397157505f80808080613899565b633250574960e11b5f5260045260245ffd5b9091506020813d6020116139c0575b8161399f60209383613135565b8101031261047357516001600160e01b03198116810361047357905f6138fa565b3d9150613992565b906139d282613157565b6139df6040519182613135565b82815280926139f0601f1991613157565b0190602036910137565b805f9172184f03e93ff9f4daa797ed6e38ed64bf6a1f0160401b821015613b1f575b806d04ee2d6d415b85acef8100000000600a921015613b04575b662386f26fc10000811015613af0575b6305f5e100811015613adf575b612710811015613ad0575b6064811015613ac2575b1015613ab7575b600a6021613a7f600185016139c8565b938401015b5f1901916f181899199a1a9b1b9c1cb0b131b232b360811b8282061a8353048015613ab257600a9091613a84565b505090565b600190910190613a6f565b606460029104930192613a68565b61271060049104930192613a5e565b6305f5e10060089104930192613a53565b662386f26fc1000060109104930192613a46565b6d04ee2d6d415b85acef810000000060209104930192613a36565b506040915072184f03e93ff9f4daa797ed6e38ed64bf6a1f0160401b8104613a1c565b6003811015610442578015613bba5760018114613b9657600214613b7457604051613b6e602082613135565b5f815290565b604051613b82604082613135565b60048152631119585960e21b602082015290565b50604051613ba5604082613135565b600581526410591d5b1d60da1b602082015290565b50604051613bc9604082613135565b60048152634261627960e01b602082015290565b919091805115613cbe578051600281018091116104105760039004600281901b906001600160fe1b0381160361041057613c16906139c8565b90602082019080815182019560208701908151925f83525b888110613c705750506003939495965052510680600114613c5e57600214613c54575090565b603d905f19015390565b50603d90815f19820153600119015390565b600360049199969901986001603f8b5182828260121c16870101518453828282600c1c16870101518385015382828260061c1687010151600285015316840101516003820153019497613c2e565b509050604051613b6e60208261313556fea2646970667358221220ba6ff1f6e4faf38104897d712be69e1d736cbeb2f3050271862562676977249564736f6c634300081c0033",
  "linkReferences": {},
  "deployedLinkReferences": {},
  "immutableReferences": {
    "7221": [
      {
        "length": 32,
        "start": 6966
      },
      {
        "length": 32,
        "start": 7728
      },
      {
        "length": 32,
        "start": 8919
      }
    ],
    "7223": [
      {
        "length": 32,
        "start": 6721
      },
      {
        "length": 32,
        "start": 8978
      }
    ],
    "7225": [
      {
        "length": 32,
        "start": 1937
      },
      {
        "length": 32,
        "start": 9011
      }
    ],
    "7227": [
      {
        "length": 32,
        "start": 9045
      },
      {
        "length": 32,
        "start": 11144
      }
    ],
    "7229": [
      {
        "length": 32,
        "start": 7405
      },
      {
        "length": 32,
        "start": 9079
      }
    ],
    "7231": [
      {
        "length": 32,
        "start": 8740
      },
      {
        "length": 32,
        "start": 9113
      }
    ],
    "7233": [
      {
        "length": 32,
        "start": 9147
      },
      {
        "length": 32,
        "start": 10496
      }
    ],
    "7235": [
      {
        "length": 32,
        "start": 9180
      },
      {
        "length": 32,
        "start": 11273
      }
    ],
    "7237": [
      {
        "length": 32,
        "start": 1758
      },
      {
        "length": 32,
        "start": 9214
      }
    ],
    "7239": [
      {
        "length": 32,
        "start": 8825
      },
      {
        "length": 32,
        "start": 9282
      }
    ],
    "7241": [
      {
        "length": 32,
        "start": 7347
      },
      {
        "length": 32,
        "start": 9248
      }
    ],
    "7243": [
      {
        "length": 32,
        "start": 6057
      },
      {
        "length": 32,
        "start": 9316
      }
    ],
    "7293": [
      {
        "length": 32,
        "start": 1990
      },
      {
        "length": 32,
        "start": 7277
      }
    ],
    "7299": [
      {
        "length": 32,
        "start": 2201
      },
      {
        "length": 32,
        "start": 2661
      }
    ],
    "7301": [
      {
        "length": 32,
        "start": 2161
      },
      {
        "length": 32,
        "start": 10583
      }
    ],
    "7303": [
      {
        "length": 32,
        "start": 2258
      },
      {
        "length": 32,
        "start": 2602
      }
    ],
    "7311": [
      {
        "length": 32,
        "start": 11329
      }
    ]
  },
  "inputSourceName": "project/contracts/Tamagotchi.sol",
  "buildInfoId": "solc-0_8_28-ffb2b80fc49511d2ff8f23a0c02a49bde3f2e2d1"
}