{
  "_format": "hh3-artifact-1",
  "contractName": "Tamagotchi",
  "sourceName": "contracts/Tamagotchi.sol",
  "abi": [
    {
      "inputs": [
        {
          "internalType": "uint256",
          "name": "_interval",
          "type": "uint256"
        },
        {
          "internalType": "uint256",
          "name": "_hungerDecayRatePerSecond",
          "type": "uint256"
        },
        {
          "internalType": "uint256",
          "name": "_happinessDecayRatePerSecond",
          "type": "uint256"
        },
        {
          "internalType": "uint256",
          "name": "_energyDecayRatePerSecond",
          "type": "uint256"
        },
        {
          "internalType": "uint256",
          "name": "_funDecayRatePerSecond",
          "type": "uint256"
        },
        {
          "internalType": "uint256",
          "name": "_hygieneDecayRatePerSecond",
          "type": "uint256"
        },
        {
          "internalType": "uint256",
          "name": "_growthInterval",
          "type": "uint256"
        },
        {
          "internalType": "uint256",
          "name": "_hungerToleranceInterval",
          "type": "uint256"
        },
        {
          "internalType": "uint256",
          "name": "_sadToleranceInterval",
          "type": "uint256"
        },
        {
          "internalType": "uint256",
          "name": "_stinkyToleranceInterval",
          "type": "uint256"
        },
        {
          "internalType": "uint256",
          "name": "_boredToleranceInterval",
          "type": "uint256"
        },
        {
          "internalType": "uint256",
          "name": "_sleepToleranceInterval",
          "type": "uint256"
        },
        {
          "internalType": "uint256",
          "name": "_subscriptionId",
          "type": "uint256"
        },
        {
          "internalType": "address",
          "name": "_vrfCoordinator",
          "type": "address"
        },
        {
          "internalType": "bytes32",
          "name": "_keyHash",
          "type": "bytes32"
        },
        {
          "internalType": "uint32",
          "name": "_callbackGasLimit",
          "type": "uint32"
        },
        {
          "internalType": "string[3]",
          "name": "_happyImageUri",
          "type": "string[3]"
        },
        {
          "internalType": "string[3]",
          "name": "_sadImageUri",
          "type": "string[3]"
        },
        {
          "internalType": "string[3]",
          "name": "_neutralImageUri",
          "type": "string[3]"
        },
        {
          "internalType": "string[3]",
          "name": "_hungryImageUri",
          "type": "string[3]"
        },
        {
          "internalType": "string[3]",
          "name": "_boredImageUri",
          "type": "string[3]"
        },
        {
          "internalType": "string[3]",
          "name": "_stinkyImageUri",
          "type": "string[3]"
        },
        {
          "internalType": "string[3]",
          "name": "_lethargicImageUri",
          "type": "string[3]"
        },
        {
          "internalType": "string[3]",
          "name": "_deadImageUri",
          "type": "string[3]"
        }
      ],
      "stateMutability": "nonpayable",
      "type": "constructor"
    },
    {
      "inputs": [
        {
          "internalType": "address",
          "name": "sender",
          "type": "address"
        },
        {
          "internalType": "uint256",
          "name": "tokenId",
          "type": "uint256"
        },
        {
          "internalType": "address",
          "name": "owner",
          "type": "address"
        }
      ],
      "name": "ERC721IncorrectOwner",
      "type": "error"
    },
    {
      "inputs": [
        {
          "internalType": "address",
          "name": "operator",
          "type": "address"
        },
        {
          "internalType": "uint256",
          "name": "tokenId",
          "type": "uint256"
        }
      ],
      "name": "ERC721InsufficientApproval",
      "type": "error"
    },
    {
      "inputs": [
        {
          "internalType": "address",
          "name": "approver",
          "type": "address"
        }
      ],
      "name": "ERC721InvalidApprover",
      "type": "error"
    },
    {
      "inputs": [
        {
          "internalType": "address",
          "name": "operator",
          "type": "address"
        }
      ],
      "name": "ERC721InvalidOperator",
      "type": "error"
    },
    {
      "inputs": [
        {
          "internalType": "address",
          "name": "owner",
          "type": "address"
        }
      ],
      "name": "ERC721InvalidOwner",
      "type": "error"
    },
    {
      "inputs": [
        {
          "internalType": "address",
          "name": "receiver",
          "type": "address"
        }
      ],
      "name": "ERC721InvalidReceiver",
      "type": "error"
    },
    {
      "inputs": [
        {
          "internalType": "address",
          "name": "sender",
          "type": "address"
        }
      ],
      "name": "ERC721InvalidSender",
      "type": "error"
    },
    {
      "inputs": [
        {
          "internalType": "uint256",
          "name": "tokenId",
          "type": "uint256"
        }
      ],
      "name": "ERC721NonexistentToken",
      "type": "error"
    },
    {
      "inputs": [
        {
          "internalType": "address",
          "name": "have",
          "type": "address"
        },
        {
          "internalType": "address",
          "name": "want",
          "type": "address"
        }
      ],
      "name": "OnlyCoordinatorCanFulfill",
      "type": "error"
    },
    {
      "inputs": [
        {
          "internalType": "address",
          "name": "have",
          "type": "address"
        },
        {
          "internalType": "address",
          "name": "owner",
          "type": "address"
        },
        {
          "internalType": "address",
          "name": "coordinator",
          "type": "address"
        }
      ],
      "name": "OnlyOwnerOrCoordinator",
      "type": "error"
    },
    {
      "inputs": [],
      "name": "Tamagotchi__AlreadyClean",
      "type": "error"
    },
    {
      "inputs": [],
      "name": "Tamagotchi__AlreadyEnergized",
      "type": "error"
    },
    {
      "inputs": [],
      "name": "Tamagotchi__AlreadyEntertained",
      "type": "error"
    },
    {
      "inputs": [],
      "name": "Tamagotchi__AlreadyFull",
      "type": "error"
    },
    {
      "inputs": [],
      "name": "Tamagotchi__AlreadyHappy",
      "type": "error"
    },
    {
      "inputs": [],
      "name": "Tamagotchi__NameIsRequired",
      "type": "error"
    },
    {
      "inputs": [],
      "name": "Tamagotchi__NotAuthorized",
      "type": "error"
    },
    {
      "inputs": [],
      "name": "Tamagotchi__NotOwner",
      "type": "error"
    },
    {
      "inputs": [],
      "name": "Tamagotchi__NotValidToken",
      "type": "error"
    },
    {
      "inputs": [],
      "name": "Tamagotchi__PetIsDead",
      "type": "error"
    },
    {
      "inputs": [],
      "name": "Tamagotchi__RequestNotFound",
      "type": "error"
    },
    {
      "inputs": [],
      "name": "Tamagotchi__UpkeepNotNeeded",
      "type": "error"
    },
    {
      "inputs": [],
      "name": "ZeroAddress",
      "type": "error"
    },
    {
      "anonymous": false,
      "inputs": [
        {
          "indexed": true,
          "internalType": "address",
          "name": "owner",
          "type": "address"
        },
        {
          "indexed": true,
          "internalType": "address",
          "name": "approved",
          "type": "address"
        },
        {
          "indexed": true,
          "internalType": "uint256",
          "name": "tokenId",
          "type": "uint256"
        }
      ],
      "name": "Approval",
      "type": "event"
    },
    {
      "anonymous": false,
      "inputs": [
        {
          "indexed": true,
          "internalType": "address",
          "name": "owner",
          "type": "address"
        },
        {
          "indexed": true,
          "internalType": "address",
          "name": "operator",
          "type": "address"
        },
        {
          "indexed": false,
          "internalType": "bool",
          "name": "approved",
          "type": "bool"
        }
      ],
      "name": "ApprovalForAll",
      "type": "event"
    },
    {
      "anonymous": false,
      "inputs": [
        {
          "indexed": false,
          "internalType": "address",
          "name": "sender",
          "type": "address"
        },
        {
          "indexed": false,
          "internalType": "uint256",
          "name": "tokenId",
          "type": "uint256"
        },
        {
          "indexed": false,
          "internalType": "uint256",
          "name": "hygieneLevel",
          "type": "uint256"
        }
      ],
      "name": "Bathing",
      "type": "event"
    },
    {
      "anonymous": false,
      "inputs": [
        {
          "indexed": false,
          "internalType": "address",
          "name": "vrfCoordinator",
          "type": "address"
        }
      ],
      "name": "CoordinatorSet",
      "type": "event"
    },
    {
      "anonymous": false,
      "inputs": [
        {
          "indexed": false,
          "internalType": "address",
          "name": "sender",
          "type": "address"
        },
        {
          "indexed": false,
          "internalType": "uint256",
          "name": "tokenId",
          "type": "uint256"
        },
        {
          "indexed": false,
          "internalType": "uint256",
          "name": "happinessLevel",
          "type": "uint256"
        }
      ],
      "name": "Cuddling",
      "type": "event"
    },
    {
      "anonymous": false,
      "inputs": [
        {
          "indexed": false,
          "internalType": "address",
          "name": "sender",
          "type": "address"
        },
        {
          "indexed": false,
          "internalType": "uint256",
          "name": "tokenId",
          "type": "uint256"
        },
        {
          "indexed": false,
          "internalType": "uint256",
          "name": "hungerLevel",
          "type": "uint256"
        }
      ],
      "name": "Feeding",
      "type": "event"
    },
    {
      "anonymous": false,
      "inputs": [
        {
          "indexed": false,
          "internalType": "address",
          "name": "owner",
          "type": "address"
        },
        {
          "indexed": false,
          "internalType": "uint256",
          "name": "tokenId",
          "type": "uint256"
        }
      ],
      "name": "NftMinted",
      "type": "event"
    },
    {
      "anonymous": false,
      "inputs": [
        {
          "indexed": true,
          "internalType": "address",
          "name": "from",
          "type": "address"
        },
        {
          "indexed": true,
          "internalType": "address",
          "name": "to",
          "type": "address"
        }
      ],
      "name": "OwnershipTransferRequested",
      "type": "event"
    },
    {
      "anonymous": false,
      "inputs": [
        {
          "indexed": true,
          "internalType": "address",
          "name": "from",
          "type": "address"
        },
        {
          "indexed": true,
          "internalType": "address",
          "name": "to",
          "type": "address"
        }
      ],
      "name": "OwnershipTransferred",
      "type": "event"
    },
    {
      "anonymous": false,
      "inputs": [
        {
          "indexed": false,
          "internalType": "uint256",
          "name": "requestId",
          "type": "uint256"
        },
        {
          "indexed": false,
          "internalType": "uint256",
          "name": "deathAge",
          "type": "uint256"
        }
      ],
      "name": "PetDeathAgeAssigned",
      "type": "event"
    },
    {
      "anonymous": false,
      "inputs": [
        {
          "indexed": false,
          "internalType": "uint256",
          "name": "tokenId",
          "type": "uint256"
        },
        {
          "indexed": false,
          "internalType": "uint256",
          "name": "timestamp",
          "type": "uint256"
        }
      ],
      "name": "PetDied",
      "type": "event"
    },
    {
      "anonymous": false,
      "inputs": [
        {
          "indexed": false,
          "internalType": "address",
          "name": "sender",
          "type": "address"
        },
        {
          "indexed": false,
          "internalType": "uint256",
          "name": "tokenId",
          "type": "uint256"
        },
        {
          "indexed": false,
          "internalType": "uint256",
          "name": "funLevel",
          "type": "uint256"
        }
      ],
      "name": "Playing",
      "type": "event"
    },
    {
      "anonymous": false,
      "inputs": [
        {
          "indexed": false,
          "internalType": "uint256",
          "name": "requestId",
          "type": "uint256"
        },
        {
          "indexed": false,
          "internalType": "uint32",
          "name": "numWords",
          "type": "uint32"
        }
      ],
      "name": "RequestSent",
      "type": "event"
    },
    {
      "anonymous": false,
      "inputs": [
        {
          "indexed": false,
          "internalType": "address",
          "name": "sender",
          "type": "address"
        },
        {
          "indexed": false,
          "internalType": "uint256",
          "name": "tokenId",
          "type": "uint256"
        },
        {
          "indexed": false,
          "internalType": "uint256",
          "name": "energyLevel",
          "type": "uint256"
        }
      ],
      "name": "Sleeping",
      "type": "event"
    },
    {
      "anonymous": false,
      "inputs": [
        {
          "indexed": true,
          "internalType": "address",
          "name": "from",
          "type": "address"
        },
        {
          "indexed": true,
          "internalType": "address",
          "name": "to",
          "type": "address"
        },
        {
          "indexed": true,
          "internalType": "uint256",
          "name": "tokenId",
          "type": "uint256"
        }
      ],
      "name": "Transfer",
      "type": "event"
    },
    {
      "inputs": [],
      "name": "acceptOwnership",
      "outputs": [],
      "stateMutability": "nonpayable",
      "type": "function"
    },
    {
      "inputs": [
        {
          "internalType": "address",
          "name": "to",
          "type": "address"
        },
        {
          "internalType": "uint256",
          "name": "tokenId",
          "type": "uint256"
        }
      ],
      "name": "approve",
      "outputs": [],
      "stateMutability": "nonpayable",
      "type": "function"
    },
    {
      "inputs": [
        {
          "internalType": "address",
          "name": "owner",
          "type": "address"
        }
      ],
      "name": "balanceOf",
      "outputs": [
        {
          "internalType": "uint256",
          "name": "",
          "type": "uint256"
        }
      ],
      "stateMutability": "view",
      "type": "function"
    },
    {
      "inputs": [
        {
          "internalType": "uint256",
          "name": "tokenId",
          "type": "uint256"
        }
      ],
      "name": "bathe",
      "outputs": [],
      "stateMutability": "nonpayable",
      "type": "function"
    },
    {
      "inputs": [
        {
          "internalType": "bytes",
          "name": "",
          "type": "bytes"
        }
      ],
      "name": "checkUpkeep",
      "outputs": [
        {
          "internalType": "bool",
          "name": "upkeepNeeded",
          "type": "bool"
        },
        {
          "internalType": "bytes",
          "name": "",
          "type": "bytes"
        }
      ],
      "stateMutability": "view",
      "type": "function"
    },
    {
      "inputs": [
        {
          "internalType": "uint256",
          "name": "tokenId",
          "type": "uint256"
        }
      ],
      "name": "cuddle",
      "outputs": [],
      "stateMutability": "nonpayable",
      "type": "function"
    },
    {
      "inputs": [],
      "name": "deathAge",
      "outputs": [
        {
          "internalType": "uint256",
          "name": "",
          "type": "uint256"
        }
      ],
      "stateMutability": "view",
      "type": "function"
    },
    {
      "inputs": [
        {
          "internalType": "uint256",
          "name": "tokenId",
          "type": "uint256"
        }
      ],
      "name": "feed",
      "outputs": [],
      "stateMutability": "nonpayable",
      "type": "function"
    },
    {
      "inputs": [
        {
          "internalType": "uint256",
          "name": "tokenId",
          "type": "uint256"
        }
      ],
      "name": "getApproved",
      "outputs": [
        {
          "internalType": "address",
          "name": "",
          "type": "address"
        }
      ],
      "stateMutability": "view",
      "type": "function"
    },
    {
      "inputs": [],
      "name": "getBoredImageUri",
      "outputs": [
        {
          "internalType": "string[3]",
          "name": "",
          "type": "string[3]"
        }
      ],
      "stateMutability": "view",
      "type": "function"
    },
    {
      "inputs": [],
      "name": "getBoredToleranceInterval",
      "outputs": [
        {
          "internalType": "uint256",
          "name": "",
          "type": "uint256"
        }
      ],
      "stateMutability": "view",
      "type": "function"
    },
    {
      "inputs": [],
      "name": "getCallbackGasLimit",
      "outputs": [
        {
          "internalType": "uint32",
          "name": "",
          "type": "uint32"
        }
      ],
      "stateMutability": "view",
      "type": "function"
    },
    {
      "inputs": [],
      "name": "getDeadImageUri",
      "outputs": [
        {
          "internalType": "string[3]",
          "name": "",
          "type": "string[3]"
        }
      ],
      "stateMutability": "view",
      "type": "function"
    },
    {
      "inputs": [],
      "name": "getDecayPrecision",
      "outputs": [
        {
          "internalType": "uint256",
          "name": "",
          "type": "uint256"
        }
      ],
      "stateMutability": "pure",
      "type": "function"
    },
    {
      "inputs": [],
      "name": "getEnergyDecayRatePerSecond",
      "outputs": [
        {
          "internalType": "uint256",
          "name": "",
          "type": "uint256"
        }
      ],
      "stateMutability": "view",
      "type": "function"
    },
    {
      "inputs": [],
      "name": "getFunDecayRatePerSecond",
      "outputs": [
        {
          "internalType": "uint256",
          "name": "",
          "type": "uint256"
        }
      ],
      "stateMutability": "view",
      "type": "function"
    },
    {
      "inputs": [],
      "name": "getGrowthInterval",
      "outputs": [
        {
          "internalType": "uint256",
          "name": "",
          "type": "uint256"
        }
      ],
      "stateMutability": "view",
      "type": "function"
    },
    {
      "inputs": [],
      "name": "getHappinessDecayRatePerSecond",
      "outputs": [
        {
          "internalType": "uint256",
          "name": "",
          "type": "uint256"
        }
      ],
      "stateMutability": "view",
      "type": "function"
    },
    {
      "inputs": [],
      "name": "getHappyImageUri",
      "outputs": [
        {
          "internalType": "string[3]",
          "name": "",
          "type": "string[3]"
        }
      ],
      "stateMutability": "view",
      "type": "function"
    },
    {
      "inputs": [],
      "name": "getHungerDecayRatePerSecond",
      "outputs": [
        {
          "internalType": "uint256",
          "name": "",
          "type": "uint256"
        }
      ],
      "stateMutability": "view",
      "type": "function"
    },
    {
      "inputs": [],
      "name": "getHungerToleranceInterval",
      "outputs": [
        {
          "internalType": "uint256",
          "name": "",
          "type": "uint256"
        }
      ],
      "stateMutability": "view",
      "type": "function"
    },
    {
      "inputs": [],
      "name": "getHungryImageUri",
      "outputs": [
        {
          "internalType": "string[3]",
          "name": "",
          "type": "string[3]"
        }
      ],
      "stateMutability": "view",
      "type": "function"
    },
    {
      "inputs": [],
      "name": "getHygieneDecayRatePerSecond",
      "outputs": [
        {
          "internalType": "uint256",
          "name": "",
          "type": "uint256"
        }
      ],
      "stateMutability": "view",
      "type": "function"
    },
    {
      "inputs": [],
      "name": "getInterval",
      "outputs": [
        {
          "internalType": "uint256",
          "name": "",
          "type": "uint256"
        }
      ],
      "stateMutability": "view",
      "type": "function"
    },
    {
      "inputs": [],
      "name": "getKeyHash",
      "outputs": [
        {
          "internalType": "bytes32",
          "name": "",
          "type": "bytes32"
        }
      ],
      "stateMutability": "view",
      "type": "function"
    },
    {
      "inputs": [],
      "name": "getLastProcessedTokenId",
      "outputs": [
        {
          "internalType": "uint256",
          "name": "",
          "type": "uint256"
        }
      ],
      "stateMutability": "view",
      "type": "function"
    },
    {
      "inputs": [],
      "name": "getLastTimestamp",
      "outputs": [
        {
          "internalType": "uint256",
          "name": "",
          "type": "uint256"
        }
      ],
      "stateMutability": "view",
      "type": "function"
    },
    {
      "inputs": [],
      "name": "getLethargicImageUri",
      "outputs": [
        {
          "internalType": "string[3]",
          "name": "",
          "type": "string[3]"
        }
      ],
      "stateMutability": "view",
      "type": "function"
    },
    {
      "inputs": [],
      "name": "getNeutralImageUri",
      "outputs": [
        {
          "internalType": "string[3]",
          "name": "",
          "type": "string[3]"
        }
      ],
      "stateMutability": "view",
      "type": "function"
    },
    {
      "inputs": [],
      "name": "getNumWords",
      "outputs": [
        {
          "internalType": "uint16",
          "name": "",
          "type": "uint16"
        }
      ],
      "stateMutability": "pure",
      "type": "function"
    },
    {
      "inputs": [],
      "name": "getOwner",
      "outputs": [
        {
          "internalType": "address",
          "name": "",
          "type": "address"
        }
      ],
      "stateMutability": "view",
      "type": "function"
    },
    {
      "inputs": [],
      "name": "getOwnerToTokenId",
      "outputs": [
        {
          "internalType": "uint256",
          "name": "",
          "type": "uint256"
        }
      ],
      "stateMutability": "view",
      "type": "function"
    },
    {
      "inputs": [],
      "name": "getRequestConfirmations",
      "outputs": [
        {
          "internalType": "uint16",
          "name": "",
          "type": "uint16"
        }
      ],
      "stateMutability": "pure",
      "type": "function"
    },
    {
      "inputs": [],
      "name": "getSadImageUri",
      "outputs": [
        {
          "internalType": "string[3]",
          "name": "",
          "type": "string[3]"
        }
      ],
      "stateMutability": "view",
      "type": "function"
    },
    {
      "inputs": [],
      "name": "getSadToleranceInterval",
      "outputs": [
        {
          "internalType": "uint256",
          "name": "",
          "type": "uint256"
        }
      ],
      "stateMutability": "view",
      "type": "function"
    },
    {
      "inputs": [],
      "name": "getSleepToleranceInterval",
      "outputs": [
        {
          "internalType": "uint256",
          "name": "",
          "type": "uint256"
        }
      ],
      "stateMutability": "view",
      "type": "function"
    },
    {
      "inputs": [],
      "name": "getStinkyImageUri",
      "outputs": [
        {
          "internalType": "string[3]",
          "name": "",
          "type": "string[3]"
        }
      ],
      "stateMutability": "view",
      "type": "function"
    },
    {
      "inputs": [],
      "name": "getStinkyToleranceInterval",
      "outputs": [
        {
          "internalType": "uint256",
          "name": "",
          "type": "uint256"
        }
      ],
      "stateMutability": "view",
      "type": "function"
    },
    {
      "inputs": [],
      "name": "getSubscriptionId",
      "outputs": [
        {
          "internalType": "uint256",
          "name": "",
          "type": "uint256"
        }
      ],
      "stateMutability": "view",
      "type": "function"
    },
    {
      "inputs": [],
      "name": "getTokenCounter",
      "outputs": [
        {
          "internalType": "uint256",
          "name": "",
          "type": "uint256"
        }
      ],
      "stateMutability": "view",
      "type": "function"
    },
    {
      "inputs": [
        {
          "internalType": "uint256",
          "name": "tokenId",
          "type": "uint256"
        }
      ],
      "name": "getTokenIdToPetStage",
      "outputs": [
        {
          "internalType": "enum Tamagotchi.PetStage",
          "name": "",
          "type": "uint8"
        }
      ],
      "stateMutability": "view",
      "type": "function"
    },
    {
      "inputs": [
        {
          "internalType": "uint256",
          "name": "tokenId",
          "type": "uint256"
        }
      ],
      "name": "getTokenIdToPetState",
      "outputs": [
        {
          "internalType": "enum Tamagotchi.PetState",
          "name": "",
          "type": "uint8"
        }
      ],
      "stateMutability": "view",
      "type": "function"
    },
    {
      "inputs": [
        {
          "internalType": "uint256",
          "name": "tokenId",
          "type": "uint256"
        }
      ],
      "name": "getTokenIdToPetStats",
      "outputs": [
        {
          "components": [
            {
              "internalType": "uint256",
              "name": "hunger",
              "type": "uint256"
            },
            {
              "internalType": "uint256",
              "name": "happiness",
              "type": "uint256"
            },
            {
              "internalType": "uint256",
              "name": "cleanliness",
              "type": "uint256"
            },
            {
              "internalType": "uint256",
              "name": "entertainment",
              "type": "uint256"
            },
            {
              "internalType": "uint256",
              "name": "energy",
              "type": "uint256"
            }
          ],
          "internalType": "struct Tamagotchi.PetStats",
          "name": "",
          "type": "tuple"
        }
      ],
      "stateMutability": "view",
      "type": "function"
    },
    {
      "inputs": [
        {
          "internalType": "uint256",
          "name": "tokenId",
          "type": "uint256"
        }
      ],
      "name": "getTokenIdToPetTimestamps",
      "outputs": [
        {
          "components": [
            {
              "internalType": "uint256",
              "name": "fedAt",
              "type": "uint256"
            },
            {
              "internalType": "uint256",
              "name": "cuddledAt",
              "type": "uint256"
            },
            {
              "internalType": "uint256",
              "name": "bathedAt",
              "type": "uint256"
            },
            {
              "internalType": "uint256",
              "name": "playedAt",
              "type": "uint256"
            },
            {
              "internalType": "uint256",
              "name": "sleptAt",
              "type": "uint256"
            },
            {
              "internalType": "uint256",
              "name": "grewAt",
              "type": "uint256"
            },
            {
              "internalType": "uint256",
              "name": "mintedAt",
              "type": "uint256"
            }
          ],
          "internalType": "struct Tamagotchi.PetTimestamps",
          "name": "",
          "type": "tuple"
        }
      ],
      "stateMutability": "view",
      "type": "function"
    },
    {
      "inputs": [
        {
          "internalType": "uint256",
          "name": "tokenId",
          "type": "uint256"
        }
      ],
      "name": "getTokenIdToPetsAge",
      "outputs": [
        {
          "internalType": "uint256",
          "name": "",
          "type": "uint256"
        }
      ],
      "stateMutability": "view",
      "type": "function"
    },
    {
      "inputs": [
        {
          "internalType": "uint256",
          "name": "tokenId",
          "type": "uint256"
        }
      ],
      "name": "getTokenIdToPetsName",
      "outputs": [
        {
          "internalType": "string",
          "name": "",
          "type": "string"
        }
      ],
      "stateMutability": "view",
      "type": "function"
    },
    {
      "inputs": [],
      "name": "getVrfCoordinator",
      "outputs": [
        {
          "internalType": "address",
          "name": "",
          "type": "address"
        }
      ],
      "stateMutability": "view",
      "type": "function"
    },
    {
      "inputs": [
        {
          "internalType": "address",
          "name": "owner",
          "type": "address"
        },
        {
          "internalType": "address",
          "name": "operator",
          "type": "address"
        }
      ],
      "name": "isApprovedForAll",
      "outputs": [
        {
          "internalType": "bool",
          "name": "",
          "type": "bool"
        }
      ],
      "stateMutability": "view",
      "type": "function"
    },
    {
      "inputs": [
        {
          "internalType": "string",
          "name": "name",
          "type": "string"
        }
      ],
      "name": "mintNft",
      "outputs": [],
      "stateMutability": "nonpayable",
      "type": "function"
    },
    {
      "inputs": [],
      "name": "name",
      "outputs": [
        {
          "internalType": "string",
          "name": "",
          "type": "string"
        }
      ],
      "stateMutability": "view",
      "type": "function"
    },
    {
      "inputs": [],
      "name": "owner",
      "outputs": [
        {
          "internalType": "address",
          "name": "",
          "type": "address"
        }
      ],
      "stateMutability": "view",
      "type": "function"
    },
    {
      "inputs": [
        {
          "internalType": "uint256",
          "name": "tokenId",
          "type": "uint256"
        }
      ],
      "name": "ownerOf",
      "outputs": [
        {
          "internalType": "address",
          "name": "",
          "type": "address"
        }
      ],
      "stateMutability": "view",
      "type": "function"
    },
    {
      "inputs": [
        {
          "internalType": "bytes",
          "name": "",
          "type": "bytes"
        }
      ],
      "name": "performUpkeep",
      "outputs": [],
      "stateMutability": "nonpayable",
      "type": "function"
    },
    {
      "inputs": [
        {
          "internalType": "uint256",
          "name": "tokenId",
          "type": "uint256"
        }
      ],
      "name": "play",
      "outputs": [],
      "stateMutability": "nonpayable",
      "type": "function"
    },
    {
      "inputs": [
        {
          "internalType": "uint256",
          "name": "requestId",
          "type": "uint256"
        },
        {
          "internalType": "uint256[]",
          "name": "randomWords",
          "type": "uint256[]"
        }
      ],
      "name": "rawFulfillRandomWords",
      "outputs": [],
      "stateMutability": "nonpayable",
      "type": "function"
    },
    {
      "inputs": [],
      "name": "requestRandomWords",
      "outputs": [],
      "stateMutability": "nonpayable",
      "type": "function"
    },
    {
      "inputs": [],
      "name": "s_vrfCoordinator",
      "outputs": [
        {
          "internalType": "contract IVRFCoordinatorV2Plus",
          "name": "",
          "type": "address"
        }
      ],
      "stateMutability": "view",
      "type": "function"
    },
    {
      "inputs": [
        {
          "internalType": "address",
          "name": "from",
          "type": "address"
        },
        {
          "internalType": "address",
          "name": "to",
          "type": "address"
        },
        {
          "internalType": "uint256",
          "name": "tokenId",
          "type": "uint256"
        }
      ],
      "name": "safeTransferFrom",
      "outputs": [],
      "stateMutability": "nonpayable",
      "type": "function"
    },
    {
      "inputs": [
        {
          "internalType": "address",
          "name": "from",
          "type": "address"
        },
        {
          "internalType": "address",
          "name": "to",
          "type": "address"
        },
        {
          "internalType": "uint256",
          "name": "tokenId",
          "type": "uint256"
        },
        {
          "internalType": "bytes",
          "name": "data",
          "type": "bytes"
        }
      ],
      "name": "safeTransferFrom",
      "outputs": [],
      "stateMutability": "nonpayable",
      "type": "function"
    },
    {
      "inputs": [
        {
          "internalType": "address",
          "name": "operator",
          "type": "address"
        },
        {
          "internalType": "bool",
          "name": "approved",
          "type": "bool"
        }
      ],
      "name": "setApprovalForAll",
      "outputs": [],
      "stateMutability": "nonpayable",
      "type": "function"
    },
    {
      "inputs": [
        {
          "internalType": "address",
          "name": "_vrfCoordinator",
          "type": "address"
        }
      ],
      "name": "setCoordinator",
      "outputs": [],
      "stateMutability": "nonpayable",
      "type": "function"
    },
    {
      "inputs": [
        {
          "internalType": "uint256",
          "name": "tokenId",
          "type": "uint256"
        }
      ],
      "name": "sleep",
      "outputs": [],
      "stateMutability": "nonpayable",
      "type": "function"
    },
    {
      "inputs": [
        {
          "internalType": "bytes4",
          "name": "interfaceId",
          "type": "bytes4"
        }
      ],
      "name": "supportsInterface",
      "outputs": [
        {
          "internalType": "bool",
          "name": "",
          "type": "bool"
        }
      ],
      "stateMutability": "view",
      "type": "function"
    },
    {
      "inputs": [],
      "name": "symbol",
      "outputs": [
        {
          "internalType": "string",
          "name": "",
          "type": "string"
        }
      ],
      "stateMutability": "view",
      "type": "function"
    },
    {
      "inputs": [
        {
          "internalType": "uint256",
          "name": "tokenId",
          "type": "uint256"
        }
      ],
      "name": "tokenURI",
      "outputs": [
        {
          "internalType": "string",
          "name": "",
          "type": "string"
        }
      ],
      "stateMutability": "view",
      "type": "function"
    },
    {
      "inputs": [
        {
          "internalType": "address",
          "name": "from",
          "type": "address"
        },
        {
          "internalType": "address",
          "name": "to",
          "type": "address"
        },
        {
          "internalType": "uint256",
          "name": "tokenId",
          "type": "uint256"
        }
      ],
      "name": "transferFrom",
      "outputs": [],
      "stateMutability": "nonpayable",
      "type": "function"
    },
    {
      "inputs": [
        {
          "internalType": "address",
          "name": "to",
          "type": "address"
        }
      ],
      "name": "transferOwnership",
      "outputs": [],
      "stateMutability": "nonpayable",
      "type": "function"
    }
  ],
  "bytecode": "0x61042060405234610f6a57614bb28038036104005261002061040051610f6e565b9061040051908239610300816104005181010312610f6a5780516103005260208101516103405260408101516060820151608083015160a084015160c085015160e086015161010087015161012088015191610140890151936101608a0151956101808b0151976101a08c01519960018060a01b038b168b03610f6a578c9b6101e06101c08e01519d01519d8e63ffffffff811603610f6a576102008101516001600160401b038111610f6a576100df90610400518301908301610f93565b6102a0526102208101516001600160401b038111610f6a5761010990610400518301908301610f93565b6103e0526102408101516001600160401b038111610f6a5761013390610400518301908301610f93565b6103c0526102608101516001600160401b038111610f6a5761015d90610400518301908301610f93565b6103a0526102808101516001600160401b038111610f6a5761018790610400518301908301610f93565b610380526102a08101516001600160401b038111610f6a576101b190610400518301908301610f93565b610360526102c08101516001600160401b038111610f6a576101db90610400518301908301610f93565b610320526102e0810151906001600160401b038211610f6a57610205916104005182019101610f93565b6102e05260406102c081905261021a90610f6e565b600a81526954616d61676f7463686960b01b60208201526102c05161023e90610f6e565b6003815262544d4760e81b6020820152815190916001600160401b03821161066f5761026a5f54611048565b601f8111610f1d575b50602090601f8311600114610eba576102a392915f9183610d0d575b50508160011b915f199060031b1c19161790565b5f555b8051906001600160401b03821161066f576102c2600154611048565b601f8111610e6c575b50602090601f8311600114610e07576102fa92915f9183610d0d5750508160011b915f199060031b1c19161790565b6001555b3315610dc057600680546001600160a01b031916331790556001600160a01b038c1615610db157600880546001600160a01b0319166001600160a01b038e16179055610300516080526103405160a05260c05260e05261010052610120526101405261016052610180526101a0526101c0526101e05261022052610280526102405261026052336102005242600a555f600b8190556102a051600d91905b60038210610ca1576103e0516010905f905b60038210610b9c576103c0516013905f905b60038210610a97576103a0516016905f905b6003821061099257610380516019905f905b6003821061088d5761036051601c905f905b600382106107885761032051601f905f905b60038210610683576102e0516022905f905b60038210610554575f6009556102c05151613b1b90816110978239608051818181611b0c01528181611e06015261224f015260a0518181816119a3015261228a015260c0518181816107e001526122ab015260e0518181816122cd0152612ae6015261010051818181611cc301526122ef01526101205181818161219c015261231101526101405181818161233301526128740152610160518181816123540152612b6701526101805181818161072d015261237601526101a0518181816121f101526123ba01526101c051818181611c89015261239801526101e05181818161178f01526123dc0152610200518181816108150152611c430152610220518181816108e60152610ab20152610240518181816108be01526128cb01526102605181818161091f0152610a7701526102805181612b9f0152f35b80518051906001600160401b03821161066f576105718554611048565b601f8111610634575b50602090601f83116001146105cb57926105b1836001959460209487965f926105c05750508160011b915f199060031b1c19161790565b86555b0193019101909161041a565b01519050898061028f565b90601f19831691865f52815f20925f5b81811061061c5750936020936001969387969383889510610604575b505050811b0186556105b4565b01515f1960f88460031b161c191690558880806105f7565b828401518555600190940193602093840193016105db565b61065f90865f5260205f20601f850160051c81019160208610610665575b601f0160051c0190611080565b8561057a565b9091508190610652565b634e487b7160e01b5f52604160045260245ffd5b80518051906001600160401b03821161066f576106a08554611048565b601f8111610758575b50602090601f83116001146106ef57926106e0836001959460209487965f926105c05750508160011b915f199060031b1c19161790565b86555b01930191019091610408565b90601f19831691865f52815f20925f5b8181106107405750936020936001969387969383889510610728575b505050811b0186556106e3565b01515f1960f88460031b161c1916905588808061071b565b828401518555600190940193602093840193016106ff565b61078290865f5260205f20601f850160051c8101916020861061066557601f0160051c0190611080565b856106a9565b80518051906001600160401b03821161066f576107a58554611048565b601f811161085d575b50602090601f83116001146107f457926107e5836001959460209487965f926105c05750508160011b915f199060031b1c19161790565b86555b019301910190916103f6565b90601f19831691865f52815f20925f5b818110610845575093602093600196938796938388951061082d575b505050811b0186556107e8565b01515f1960f88460031b161c19169055888080610820565b82840151855560019094019360209384019301610804565b61088790865f5260205f20601f850160051c8101916020861061066557601f0160051c0190611080565b856107ae565b80518051906001600160401b03821161066f576108aa8554611048565b601f8111610962575b50602090601f83116001146108f957926108ea836001959460209487965f926105c05750508160011b915f199060031b1c19161790565b86555b019301910190916103e4565b90601f19831691865f52815f20925f5b81811061094a5750936020936001969387969383889510610932575b505050811b0186556108ed565b01515f1960f88460031b161c19169055888080610925565b82840151855560019094019360209384019301610909565b61098c90865f5260205f20601f850160051c8101916020861061066557601f0160051c0190611080565b856108b3565b80518051906001600160401b03821161066f576109af8554611048565b601f8111610a67575b50602090601f83116001146109fe57926109ef836001959460209487965f926105c05750508160011b915f199060031b1c19161790565b86555b019301910190916103d2565b90601f19831691865f52815f20925f5b818110610a4f5750936020936001969387969383889510610a37575b505050811b0186556109f2565b01515f1960f88460031b161c19169055888080610a2a565b82840151855560019094019360209384019301610a0e565b610a9190865f5260205f20601f850160051c8101916020861061066557601f0160051c0190611080565b856109b8565b80518051906001600160401b03821161066f57610ab48554611048565b601f8111610b6c575b50602090601f8311600114610b035792610af4836001959460209487965f926105c05750508160011b915f199060031b1c19161790565b86555b019301910190916103c0565b90601f19831691865f52815f20925f5b818110610b545750936020936001969387969383889510610b3c575b505050811b018655610af7565b01515f1960f88460031b161c19169055888080610b2f565b82840151855560019094019360209384019301610b13565b610b9690865f5260205f20601f850160051c8101916020861061066557601f0160051c0190611080565b85610abd565b80518051906001600160401b03821161066f57610bb98554611048565b601f8111610c71575b50602090601f8311600114610c085792610bf9836001959460209487965f926105c05750508160011b915f199060031b1c19161790565b86555b019301910190916103ae565b90601f19831691865f52815f20925f5b818110610c595750936020936001969387969383889510610c41575b505050811b018655610bfc565b01515f1960f88460031b161c19169055888080610c34565b82840151855560019094019360209384019301610c18565b610c9b90865f5260205f20601f850160051c8101916020861061066557601f0160051c0190611080565b85610bc2565b80518051906001600160401b03821161066f57610cbe8554611048565b601f8111610d81575b50602090601f8311600114610d185792610cfe836001959460209487965f92610d0d5750508160011b915f199060031b1c19161790565b86555b0193019101909161039c565b015190505f8061028f565b90601f19831691865f52815f20925f5b818110610d695750936020936001969387969383889510610d51575b505050811b018655610d01565b01515f1960f88460031b161c191690555f8080610d44565b82840151855560019094019360209384019301610d28565b610dab90865f5260205f20601f850160051c8101916020861061066557601f0160051c0190611080565b5f610cc7565b63d92e233d60e01b5f5260045ffd5b6102c0515162461bcd60e51b815260206004820152601860248201527f43616e6e6f7420736574206f776e657220746f207a65726f00000000000000006044820152606490fd5b90601f1983169160015f52815f20925f5b818110610e545750908460019594939210610e3c575b505050811b016001556102fe565b01515f1960f88460031b161c191690555f8080610e2e565b92936020600181928786015181550195019301610e18565b60015f52610eb4907fb10e2d527612073b26eecdfd717e6a320cf44b4afac2b0732d9fcbe2b7fa0cf6601f850160051c8101916020861061066557601f0160051c0190611080565b5f6102cb565b90601f198316915f8052815f20925f5b818110610f055750908460019594939210610eed575b505050811b015f556102a6565b01515f1960f88460031b161c191690555f8080610ee0565b92936020600181928786015181550195019301610eca565b5f8052610f64907f290decd9548b62a8d60345a988386fc84ba6bc95484008f6362f93160ef3e563601f850160051c8101916020861061066557601f0160051c0190611080565b5f610273565b5f80fd5b6040519190601f01601f191682016001600160401b0381118382101761066f57604052565b9080601f83011215610f6a5760405191606083016001600160401b0381118482101761066f57604052826060820191838311610f6a5780915b838310610fdb57505050505090565b82516001600160401b038111610f6a57820185601f82011215610f6a578051916001600160401b03831161066f5761101c601f8401601f1916602001610f6e565b8381528760208585010111610f6a575f6020858196828097018386015e83010152815201920191610fcc565b90600182811c92168015611076575b602083101461106257565b634e487b7160e01b5f52602260045260245ffd5b91607f1691611057565b81811061108b575050565b5f815560010161108056fe6080806040526004361015610012575f80fd5b5f3560e01c90816281d07e14612f365750806301815a2114612e0457806301ffc9a714612d9657806306fdde0314612cf4578063081812fc14612cb8578063095ea7b314612bce5780630cb4a29d14612b8a5780630edd89a014612b505780630f4c722314612b33578063190e99a814612b095780631d8cc34614612acf5780631fe543e3146129e057806323b872dd146129c95780632df36c96146128ee578063331bf125146128b457806337899770146128975780633bcd87b11461285d57806342842e0e1461282e57806345231600146127845780634585e33b146122315780634eebaec8146122145780635352059f146121da57806353a2c19a146121bf57806354c00c45146121855780635e43a813146121285780635f1b0fd81461210d5780636352211e146120dd578063651c59da14611fab5780636898f82b14611e795780636e02007d14611e5c5780636e04ff0d14611de457806370a0823114611d9357806379ba509714611ce65780637a1dbf7e14611cac5780638483b74714611c72578063893d20e814611c2e5780638da5cb5b14611c065780638ea9811714611b2f57806391ad27b414611af5578063934fd42014611acb57806395d89b41146119ed578063980c31b2146119c6578063984d0fc41461198c5780639b9d56fd1461192f5780639dd4d3f8146118d25780639eccacf6146118aa578063a22cb4651461180f578063b06e799a146117b2578063b5a0e4ca14611778578063b88d4fde1461170b578063bf3ac06f146116d5578063c0b1a14314611678578063c30fd3f91461161b578063c87b56dd14610fff578063d4c14a0514610fa2578063da86f4a914610ad5578063de3d9fb714610a9b578063de8be8e714610a5b578063e0c8628914610803578063e50fc4fa146107c9578063e89eaa8a146107a7578063e985e9c514610750578063f14e7d5d14610716578063f2fde38b1461061c578063f59dfdfb146104f9578063f973134b146104985763fa9d8713146102fc575f80fd5b34610494576020366003190112610494576004355f8181526002602052604090205461033490829033906001600160a01b03166133c4565b1561048557600b5481101561047757805f52602960205260ff60405f20541660088110156104635760071461045457805f52602a6020526064600460405f2001541461044557805f52602a602052600460405f20015490601e8201809211610431576103c07ff98679335ac375e07fd4a046fb3905abeb19befff9ddd5faa9c9e2c93fc3724d9261344f565b815f52602a602052600460405f200155805f52602b60205242600460405f2001556103fe6103ed82613471565b825f52602960205260405f20613152565b5f818152602a6020908152604091829020600401548251338152918201939093529081019190915280606081015b0390a1005b634e487b7160e01b5f52601160045260245ffd5b63a8d8f14960e01b5f5260045ffd5b63878c570d60e01b5f5260045ffd5b634e487b7160e01b5f52602160045260245ffd5b621960c960e71b5f5260045ffd5b63047a7c3760e41b5f5260045ffd5b5f80fd5b34610494575f366003190112610494576104b0613397565b506040516104bd816130c5565b601c5f825b600382106104dc57604051806104d88682613043565b0390f35b6001602081926104eb866131a2565b8152019301910190916104c2565b34610494576020366003190112610494576004355f8181526002602052604090205461053190829033906001600160a01b03166133c4565b1561048557600b5481101561047757805f52602960205260ff60405f20541660088110156104635760071461045457805f52602a602052606460405f20541461060d57805f52602a60205260405f205490601e8201809211610431576105b77fd85a3ae03597a7161610eb31fe93f0bec0fa8b75f3aa371c7bd4511d077d5fe79261344f565b815f52602a60205260405f2055805f52602b6020524260405f20556105de6103ed82613471565b5f818152602a60209081526040918290205482513381529182019390935290810191909152806060810161042c565b63a1c30edf60e01b5f5260045ffd5b3461049457602036600319011261049457610635612f8e565b6006546001600160a01b031690338290036106d8576001600160a01b03169033821461069357600780546001600160a01b031916831790557fed8889f560326eb138920d842192f0eb3dd22b4f139c87a2c57538e05bae12785f80a3005b60405162461bcd60e51b815260206004820152601760248201527f43616e6e6f74207472616e7366657220746f2073656c660000000000000000006044820152606490fd5b60405162461bcd60e51b815260206004820152601660248201527527b7363c9031b0b63630b1363290313c9037bbb732b960511b6044820152606490fd5b34610494575f3660031901126104945760206040517f00000000000000000000000000000000000000000000000000000000000000008152f35b3461049457604036600319011261049457610769612f8e565b610771612fa4565b9060018060a01b03165f52600560205260405f209060018060a01b03165f52602052602060ff60405f2054166040519015158152f35b34610494575f366003190112610494576020604051670de0b6b3a76400008152f35b34610494575f3660031901126104945760206040517f00000000000000000000000000000000000000000000000000000000000000008152f35b34610494575f366003190112610494577f00000000000000000000000000000000000000000000000000000000000000006001600160a01b03163303610a4c57600854604051906001600160a01b0316602082016001600160401b03811183821017610a38576040525f82526040519163125fa26760e31b60208401525115156024830152602482526108976044836130e0565b6040519160c08301918383106001600160401b03841117610a385761ffff936020936040527f000000000000000000000000000000000000000000000000000000000000000081525f848201917f0000000000000000000000000000000000000000000000000000000000000000835261099f60408201956003875263ffffffff60608401817f00000000000000000000000000000000000000000000000000000000000000001681528160808601916001835260a087019485526040519c8d9b8c9a8b99634d8e1c2f60e11b8b528f60048c01525160248b01525160448a01525116606488015251166084860152511660a48401525160c060c484015260e4830190612f6a565b03925af1908115610a2d575f916109fa575b7fcc58b13ad3eab50626c6a6300b1d139cd6ebb1688a7cced9461c2f7e762665ee604083805f52602c602052815f20600160ff19825416179055815190815260016020820152a1005b90506020813d602011610a25575b81610a15602093836130e0565b81010312610494575160406109b1565b3d9150610a08565b6040513d5f823e3d90fd5b634e487b7160e01b5f52604160045260245ffd5b63217608b760e01b5f5260045ffd5b34610494575f36600319011261049457602060405163ffffffff7f0000000000000000000000000000000000000000000000000000000000000000168152f35b34610494575f3660031901126104945760206040517f00000000000000000000000000000000000000000000000000000000000000008152f35b34610494576020366003190112610494576004356001600160401b038111610494573660238201121561049457610b1690369060248160040135910161311c565b805115610f9357600b54602090604051610b3083826130e0565b5f81523315610f80575f8281526002845260409020546001600160a01b03168015159081610f4f575b335f8181526003875260408082208054600101905586825260028852812080546001600160a01b0319168317905585919083907fddf252ad1be2c89b69c2b068fc378daa952ba7f163c4a11628f55a4df523b3ef9080a450610f3c578290333b610e30575b505050600b545f526028815260405f2060ff198154169055600b545f52602681525f6040812055600b545f526027815260405f208251926001600160401b038411610a3857610c0d825461316a565b601f8111610ded575b508290601f8511600114610d8857610d7894915f9183610d7d575b50508160011b915f199060031b1c19161790555b600b54335f52602582528060405f20555f52602b815242600660405f200155600b545f52602b815242600260405f200155600b545f52602b815242600160405f200155600b545f52602b81524260405f2055600b545f52602b815242600560405f200155600b545f52602b815242600360405f200155600b545f52602b815242600460405f200155600b545f52602a8152601e60405f2055600b545f52602a81526046600160405f200155600b545f52602a81526046600460405f200155600b545f52602a81526014600260405f200155600b545f52602a81526046600360405f200155600b545f526029815260405f20600560ff198254161790557ff2b290a76feb54be358b555507421d765609171aefa0646f109a653228ff81b86040600b549283825191338352820152a1613389565b600b55005b015190508580610c31565b90601f19851691835f52845f20925f5b818110610dd65750916001939187610d78989410610dbe575b505050811b019055610c45565b01515f1960f88460031b161c19169055858080610db1565b929386600181928786015181550195019301610d98565b825f52835f20601f860160051c810191858710610e26575b601f0160051c01905b818110610e1b5750610c16565b5f8155600101610e0e565b9091508190610e05565b610e68926040519384928392630a85bd0160e11b84523360048501525f60248501526044840152608060648401526084830190612f6a565b03815f335af15f9181610efc575b50610eca57503d15610ec2573d90610e8d82613101565b91610e9b60405193846130e0565b82523d5f8284013e5b81519182610ebf57633250574960e11b5f523360045260245ffd5b01fd5b606090610ea4565b6001600160e01b03191663757a42ff60e11b01610ee957828181610bbe565b633250574960e11b5f523360045260245ffd5b9091508281813d8311610f35575b610f1481836130e0565b8101031261049457516001600160e01b031981168103610494579084610e76565b503d610f0a565b6339e3563760e11b5f525f60045260245ffd5b5f8481526004602052604080822080546001600160a01b031916905582825260038752902080545f19019055610b59565b633250574960e11b5f525f60045260245ffd5b63144a1cf960e31b5f5260045ffd5b34610494575f36600319011261049457610fba613397565b50604051610fc7816130c5565b60165f825b60038210610fe257604051806104d88682613043565b600160208192610ff1866131a2565b815201930191019091610fcc565b34610494576020366003190112610494576004355f8181526028602052604090205460ff16600381101560608161046357835f52602960205260ff60405f2054166008811015610463576007036114b2575061149e57611061906022016131a2565b905b60409081519061107383836130e0565b601d825260208201937f646174613a6170706c69636174696f6e2f6a736f6e3b6261736536342c00000085526110a882613810565b90825f52602a602052845f20600101546110c190613810565b92805f52602a602052855f20546110d790613810565b90805f52602a602052865f20600301546110f090613810565b815f52602a602052875f206002015461110890613810565b825f52602a602052885f206004015461112090613810565b91835f526026602052895f205461113690613810565b935f526028602052895f205460ff1661114e90613958565b948a51988998757b226e616d65223a202254616d61676f74636869202360501b60208b01528051602081920160368c015e7f222c20226465736372697074696f6e223a22412063757465206f6e2d636861696036918b019182015273037102a30b6b0b3b7ba31b434903832ba171116160651b60568201526d2261747472696275746573223a5b60901b606a8201527f7b2274726169745f74797065223a2268617070696e657373222c2276616c7565607882015261111d60f11b60988201528151918290602001609a83015e01603601606481017f7d2c207b2274726169745f74797065223a2268756e676572222c2276616c7565905261111d60f11b608482015281516020819301608683015e01606401602281017f7d2c207b2274726169745f74797065223a22626f7265646f6d222c2276616c7590526232911d60e91b604282015281516020819301604583015e01602201602381017f7d2c207b2274726169745f74797065223a2268796769656e65222c2276616c7590526232911d60e91b604382015281516020819301604683015e01602301602381017f7d2c207b2274726169745f74797065223a22656e65726779222c2276616c7565905261111d60f11b604382015281516020819301604583015e01602301602281017f7d2c207b2274726169745f74797065223a22616765222c2276616c7565223a00905281516020819301604183015e01602201601f81017f7d2c207b2274726169745f74797065223a227374616765222c2276616c7565229052611d1160f11b603f82015281516020819301604183015e01601f016d113eae96101134b6b0b3b2911d1160911b602282015281516020819301603083015e0160220161227d60f01b600e82015203600e01601d19810182526002016113ec90826130e0565b82516113f96060826130e0565b8381527f4142434445464748494a4b4c4d4e4f505152535455565758595a61626364656660208201527f6768696a6b6c6d6e6f707172737475767778797a303132333435363738392b2f81850152611450916139f3565b8251938492518091602085015e820160208101915f83528051926020849201905e016020015f815203601f198101835261148a90836130e0565b51809160208252602082016104d891612f6a565b634e487b7160e01b5f52603260045260245ffd5b835f52602960205260ff60405f2054166008811015610463576114e6575061149e576114e090600d016131a2565b90611063565b835f52602960205260ff60405f205416600881101561046357600103611517575061149e576114e0906010016131a2565b835f52602960205260ff60405f205416600881101561046357600203611548575061149e576114e0906013016131a2565b835f52602960205260ff60405f205416600881101561046357600303611579575061149e576114e0906016016131a2565b835f52602960205260ff60405f2054166008811015610463576004036115aa575061149e576114e0906019016131a2565b835f52602960205260ff60405f2054166008811015610463576005036115db575061149e576114e090601c016131a2565b92809291505f52602960205260ff60405f205416600881101561046357600614611606575b50611063565b611614919250601f016131a2565b9082611600565b34610494575f36600319011261049457611633613397565b50604051611640816130c5565b60105f825b6003821061165b57604051806104d88682613043565b60016020819261166a866131a2565b815201930191019091611645565b34610494575f36600319011261049457611690613397565b5060405161169d816130c5565b60135f825b600382106116b857604051806104d88682613043565b6001602081926116c7866131a2565b8152019301910190916116a2565b34610494576020366003190112610494576004355f52602860205260ff60405f2054166040516003821015610463576020918152f35b3461049457608036600319011261049457611724612f8e565b61172c612fa4565b90604435606435926001600160401b03841161049457366023850112156104945761176461177694369060248160040135910161311c565b92611770838383613242565b336136a8565b005b34610494575f3660031901126104945760206040517f00000000000000000000000000000000000000000000000000000000000000008152f35b34610494575f366003190112610494576117ca613397565b506040516117d7816130c5565b60195f825b600382106117f257604051806104d88682613043565b600160208192611801866131a2565b8152019301910190916117dc565b3461049457604036600319011261049457611828612f8e565b60243590811515809203610494576001600160a01b031690811561189757335f52600560205260405f20825f5260205260405f2060ff1981541660ff83161790556040519081527f17307eab39ab6107e8899845ad3d59bd9653f200f220920489ca2b5937696c3160203392a3005b50630b61174360e31b5f5260045260245ffd5b34610494575f366003190112610494576008546040516001600160a01b039091168152602090f35b34610494575f366003190112610494576118ea613397565b506040516118f7816130c5565b601f5f825b6003821061191257604051806104d88682613043565b600160208192611921866131a2565b8152019301910190916118fc565b34610494575f36600319011261049457611947613397565b50604051611954816130c5565b60225f825b6003821061196f57604051806104d88682613043565b60016020819261197e866131a2565b815201930191019091611959565b34610494575f3660031901126104945760206040517f00000000000000000000000000000000000000000000000000000000000000008152f35b34610494575f36600319011261049457335f526025602052602060405f2054604051908152f35b34610494575f366003190112610494576040515f600154611a0d8161316a565b8084529060018116908115611aa75750600114611a49575b6104d883611a35818503826130e0565b604051918291602083526020830190612f6a565b60015f9081527fb10e2d527612073b26eecdfd717e6a320cf44b4afac2b0732d9fcbe2b7fa0cf6939250905b808210611a8d57509091508101602001611a35611a25565b919260018160209254838588010152019101909291611a75565b60ff191660208086019190915291151560051b84019091019150611a359050611a25565b34610494576020366003190112610494576004355f5260276020526104d8611a3560405f206131a2565b34610494575f3660031901126104945760206040517f00000000000000000000000000000000000000000000000000000000000000008152f35b3461049457602036600319011261049457611b48612f8e565b6006546001600160a01b03163381141580611bf1575b611bc757506001600160a01b03168015611bb8576020817fd1a6a14209a385a964d036e404cb5cfb71f4000cdb03c9366292430787261be6926bffffffffffffffffffffffff60a01b6008541617600855604051908152a1005b63d92e233d60e01b5f5260045ffd5b60085463061db9c160e01b5f908152336004526024929092526001600160a01b0316604452606490fd5b506008546001600160a01b0316331415611b5e565b34610494575f366003190112610494576006546040516001600160a01b039091168152602090f35b34610494575f366003190112610494576040517f00000000000000000000000000000000000000000000000000000000000000006001600160a01b03168152602090f35b34610494575f3660031901126104945760206040517f00000000000000000000000000000000000000000000000000000000000000008152f35b34610494575f3660031901126104945760206040517f00000000000000000000000000000000000000000000000000000000000000008152f35b34610494575f366003190112610494576007546001600160a01b0381163303611d555760068054336001600160a01b03198083168217909355929091166007556001600160a01b03167f8be0079c531659141344cd1fd0a4f28419497f9722a3daafe3b4186f6b6457e05f80a3005b60405162461bcd60e51b815260206004820152601660248201527526bab9ba10313290383937b837b9b2b21037bbb732b960511b6044820152606490fd5b34610494576020366003190112610494576001600160a01b03611db4612f8e565b168015611dd1575f526003602052602060405f2054604051908152f35b6322718ad960e21b5f525f60045260245ffd5b3461049457611df236612ff4565b5050611e00600a544261337c565b604051907f00000000000000000000000000000000000000000000000000000000000000001081526040602082015260208160406060518082840152806080606085015e5f8382018301850152601f01601f1916820101030190f35b34610494575f366003190112610494576020600b54604051908152f35b34610494576020366003190112610494576004355f81815260026020526040902054611eb190829033906001600160a01b03166133c4565b1561048557600b5481101561047757805f52602960205260ff60405f20541660088110156104635760071461045457805f52602a6020526064600360405f20015414611f9c57805f52602a602052600360405f20015490601e820180921161043157611f3d7f3c8c305e373784f6b82578200176a1ebdc625fe42d95cb47a551a58ed71116e09261344f565b815f52602a602052600360405f200155805f52602b60205242600360405f200155611f6a6103ed82613471565b5f818152602a60209081526040918290206003015482513381529182019390935290810191909152806060810161042c565b63b16a272560e01b5f5260045ffd5b34610494576020366003190112610494576004355f81815260026020526040902054611fe390829033906001600160a01b03166133c4565b1561048557600b5481101561047757805f52602960205260ff60405f20541660088110156104635760071461045457805f52602a6020526064600260405f200154146120ce57805f52602a602052600260405f20015490601e82018092116104315761206f7fc8264fa3e069a8289073805251ac08944d62d5e100baf1652f03fe30313c2fac9261344f565b815f52602a602052600260405f200155805f52602b60205242600260405f20015561209c6103ed82613471565b5f818152602a60209081526040918290206002015482513381529182019390935290810191909152806060810161042c565b638b629b9f60e01b5f5260045ffd5b346104945760203660031901126104945760206120fb600435613590565b6040516001600160a01b039091168152f35b34610494575f36600319011261049457602060405160038152f35b34610494575f36600319011261049457612140613397565b5060405161214d816130c5565b600d5f825b6003821061216857604051806104d88682613043565b600160208192612177866131a2565b815201930191019091612152565b34610494575f3660031901126104945760206040517f00000000000000000000000000000000000000000000000000000000000000008152f35b34610494575f36600319011261049457602060405160018152f35b34610494575f3660031901126104945760206040517f00000000000000000000000000000000000000000000000000000000000000008152f35b34610494575f366003190112610494576020600954604051908152f35b346104945761223f36612ff4565b505061224d600a544261337c565b7f000000000000000000000000000000000000000000000000000000000000000010156127755742600a55600954600b54111561276c575b6009547f00000000000000000000000000000000000000000000000000000000000000007f0000000000000000000000000000000000000000000000000000000000000000917f0000000000000000000000000000000000000000000000000000000000000000927f0000000000000000000000000000000000000000000000000000000000000000937f0000000000000000000000000000000000000000000000000000000000000000947f00000000000000000000000000000000000000000000000000000000000000007f0000000000000000000000000000000000000000000000000000000000000000967f0000000000000000000000000000000000000000000000000000000000000000927f0000000000000000000000000000000000000000000000000000000000000000947f0000000000000000000000000000000000000000000000000000000000000000967f0000000000000000000000000000000000000000000000000000000000000000985b600b54600954600a81018091116104315761241791613460565b81101561275957805f52602960205260ff60405f20541660088110156104635760071461275157805f52602b60205261246260405f2054825f52602a60205260405f2054908d6135c4565b5f828152602a60208181526040808420948555602b82529092204281556001908101549190925291015461249691846135c4565b5f828152602a602081815260408084206001818101879055602b84529190942094855542908501556004938401549190529101546124d491856135c4565b5f828152602a60208181526040808420600481810196909655602b83529320429481019490945560039384015491905291015461251191866135c4565b5f828152602a60208181526040808420600381810196909655602b83529320429481019490945560029384015491905291015461254e91876135c4565b815f52602a602052600260405f200155805f52602b60205242600260405f20015561257b6103ed82613471565b805f52602b60205285612595600560405f2001544261337c565b11612692575b806001915f52602a6020526125c48d60405f2054835f52602b60205260405f2054914285613636565b61268d57805f52602a6020526125f28260405f200154825f52602b6020528360405f200154908a4285613636565b61268d57805f52602a602052612622600360405f200154825f52602b602052600360405f200154908b4285613636565b61268d57805f52602a602052612652600260405f200154825f52602b602052600260405f200154908c4285613636565b61268d57805f52602a602052612682600460405f200154825f52602b602052600460405f200154908d4285613636565b61268d575b016123fd565b612687565b805f52602b60205242600560405f200155805f52602660205260405f206126b98154613389565b9055805f5260266020526126d060405f2054613604565b815f52602860205260405f209060038110156104635760ff80198354169116179055805f52602960205260ff60405f2054169060088210156104635760076001921461271d57905061259b565b7fdcec5b82f11ced23696788e67220727fb050fbbfa0e5975b61fc5f0a009922d860408051838152426020820152a1612687565b600190612687565b600954600a810180911161043157600955005b5f600955612285565b632fe4a35560e11b5f5260045ffd5b34610494576020366003190112610494575f60806040516127a4816130aa565b82815282602082015282604082015282606082015201526004355f52602a60205260a060405f206040516127d7816130aa565b81549182825260018101546020830190815260028201549060408401918252608060046003850154946060870195865201549401938452604051948552516020850152516040840152516060830152516080820152f35b346104945761177661283f36612fba565b906040519261284f6020856130e0565b5f8452611770838383613242565b34610494575f3660031901126104945760206040517f00000000000000000000000000000000000000000000000000000000000000008152f35b34610494575f366003190112610494576020600a54604051908152f35b34610494575f3660031901126104945760206040517f00000000000000000000000000000000000000000000000000000000000000008152f35b34610494576020366003190112610494575f60c060405161290e8161308f565b8281528260208201528260408201528260608201528260808201528260a082015201526004355f52602b60205260e060405f2060405161294d8161308f565b815491828252600181015460208301908152600282015460408401908152600383015490606085019182526004840154926080860193845260c0600660058701549660a08901978852015496019586526040519687525160208701525160408601525160608501525160808401525160a08301525160c0820152f35b34610494576117766129da36612fba565b91613242565b34610494576040366003190112610494576004356024356001600160401b03811161049457366023820112156104945780600401356001600160401b038111610494573660248260051b84010111610494576008546001600160a01b031633819003612ab95750825f52602c60205260ff60405f20541615612aaa571561149e576024600f9101351660058101809111610431577f4e2747c894985d7a2114165cf73333afefb9cb5651dc9192a03295533ff282eb9181604092600c5582519182526020820152a1005b631444a26760e21b5f5260045ffd5b63073e64fd60e21b5f523360045260245260445ffd5b34610494575f3660031901126104945760206040517f00000000000000000000000000000000000000000000000000000000000000008152f35b34610494576020366003190112610494576004355f526026602052602060405f2054604051908152f35b34610494575f366003190112610494576020600c54604051908152f35b34610494575f3660031901126104945760206040517f00000000000000000000000000000000000000000000000000000000000000008152f35b34610494575f366003190112610494576040517f00000000000000000000000000000000000000000000000000000000000000006001600160a01b03168152602090f35b3461049457604036600319011261049457612be7612f8e565b602435612bf381613590565b33151580612ca5575b80612c78575b612c655781906001600160a01b0384811691167f8c5be1e5ebec7d5bd14f71427d1e84f3dd0314c0f7b2291e5b200ac8c7c3b9255f80a45f90815260046020526040902080546001600160a01b0319166001600160a01b03909216919091179055005b63a9fbf51f60e01b5f523360045260245ffd5b506001600160a01b0381165f90815260056020908152604080832033845290915290205460ff1615612c02565b506001600160a01b038116331415612bfc565b3461049457602036600319011261049457600435612cd581613590565b505f526004602052602060018060a01b0360405f205416604051908152f35b34610494575f366003190112610494576040515f5f54612d138161316a565b8084529060018116908115611aa75750600114612d3a576104d883611a35818503826130e0565b5f8080527f290decd9548b62a8d60345a988386fc84ba6bc95484008f6362f93160ef3e563939250905b808210612d7c57509091508101602001611a35611a25565b919260018160209254838588010152019101909291612d64565b346104945760203660031901126104945760043563ffffffff60e01b8116809103610494576020906380ac58cd60e01b8114908115612df3575b8115612de2575b506040519015158152f35b6301ffc9a760e01b14905082612dd7565b635b5e139f60e01b81149150612dd0565b34610494576020366003190112610494576004355f81815260026020526040902054612e3c90829033906001600160a01b03166133c4565b1561048557600b5481101561047757805f52602960205260ff60405f20541660088110156104635760071461045457805f52602a6020526064600160405f20015414612f2757805f52602a602052600160405f20015490601e820180921161043157612ec87fe2b49305a8b3d55a0ef566021444b2e1c353b29d39b1703063c0f0a5830ebf289261344f565b815f52602a602052600160405f200155805f52602b60205242600160405f200155612ef56103ed82613471565b5f818152602a60209081526040918290206001015482513381529182019390935290810191909152806060810161042c565b630f75530d60e01b5f5260045ffd5b34610494576020366003190112610494576004355f52602960205260ff60405f205416906008821015610463576020918152f35b805180835260209291819084018484015e5f828201840152601f01601f1916010190565b600435906001600160a01b038216820361049457565b602435906001600160a01b038216820361049457565b6060906003190112610494576004356001600160a01b038116810361049457906024356001600160a01b0381168103610494579060443590565b906020600319830112610494576004356001600160401b0381116104945782602382011215610494578060040135926001600160401b0384116104945760248483010111610494576024019190565b6020810160208252906080810192915f905b60038210613064575050505090565b90919293602080613081600193601f198882030186528851612f6a565b960192019201909291613055565b60e081019081106001600160401b03821117610a3857604052565b60a081019081106001600160401b03821117610a3857604052565b606081019081106001600160401b03821117610a3857604052565b90601f801991011681019081106001600160401b03821117610a3857604052565b6001600160401b038111610a3857601f01601f191660200190565b92919261312882613101565b9161313660405193846130e0565b829481845281830111610494578281602093845f960137010152565b9060088110156104635760ff80198354169116179055565b90600182811c92168015613198575b602083101461318457565b634e487b7160e01b5f52602260045260245ffd5b91607f1691613179565b9060405191825f8254926131b58461316a565b808452936001811690811561322057506001146131dc575b506131da925003836130e0565b565b90505f9291925260205f20905f915b8183106132045750509060206131da928201015f6131cd565b60209193508060019154838589010152019101909184926131eb565b9050602092506131da94915060ff191682840152151560051b8201015f6131cd565b6001600160a01b0390911691908215610f80575f828152600260205260409020546001600160a01b031692829033613336575b84613303575b805f52600360205260405f2060018154019055815f52600260205260405f20816bffffffffffffffffffffffff60a01b825416179055847fddf252ad1be2c89b69c2b068fc378daa952ba7f163c4a11628f55a4df523b3ef5f80a46001600160a01b03168083036132eb57505050565b6364283d7b60e01b5f5260045260245260445260645ffd5b5f82815260046020526040902080546001600160a01b0319169055845f52600360205260405f205f19815401905561327b565b906133429033866133c4565b1561334e578290613275565b828461336657637e27328960e01b5f5260045260245ffd5b63177e802f60e01b5f523360045260245260445ffd5b9190820391821161043157565b5f1981146104315760010190565b6040519060606133a781846130e0565b825f5b8281106133b657505050565b6060828201526020016133aa565b6001600160a01b039091168015159291836133e0575b50505090565b6001600160a01b03168082149350909190831561342c575b50821561340a575b50505f80806133da565b5f908152600460205260408120546001600160a01b0316909114915080613400565b9092505f52600560205260405f20815f5260205260ff60405f205416915f6133f8565b6064811161345a5790565b50606490565b9080821161346c575090565b905090565b5f908152602a6020526040812080546001820154600483015460038401546002909401549193606493909190601e81111580613587575b61357b575b50601e85111580613572575b613566575b60288111158061355d575b613551575b50601e81111580613548575b61353c575b50602881111580613533575b613527575b5060288211918261351b575b82613511575b505061350b5790565b50600290565b1090505f80613502565b603c81111592506134fc565b6005935090505f6134f0565b508181106134eb565b6004945091505f6134df565b508281106134da565b6006955092505f6134ce565b508381106134c9565b600195508493506134be565b508385106134b9565b6003965093505f6134ad565b508481106134a8565b5f818152600260205260409020546001600160a01b03169081156135b2575090565b637e27328960e01b5f5260045260245ffd5b906135cf904261337c565b9081810291818304149015171561043157670de0b6b3a764000090048181106135f85750505f90565b6136019161337c565b90565b600381119081156136305781613624575b5061361f57600290565b600190565b6005915011155f613615565b50505f90565b93919092159182613694575b50501561363057816040917fdcec5b82f11ced23696788e67220727fb050fbbfa0e5975b61fc5f0a009922d8935f526029602052825f20600760ff1982541617905582519182526020820152a1600190565b6136a09192508361337c565b115f80613642565b823b6136b6575b5050505050565b604051630a85bd0160e11b81526001600160a01b039182166004820152918116602483015260448201939093526080606482015291169160209082908190613702906084830190612f6a565b03815f865af15f9181613799575b5061376557503d1561375e573d61372681613101565b9061373460405192836130e0565b81523d5f602083013e5b805190816137595782633250574960e11b5f5260045260245ffd5b602001fd5b606061373e565b6001600160e01b03191663757a42ff60e11b0161378757505f808080806136af565b633250574960e11b5f5260045260245ffd5b9091506020813d6020116137d6575b816137b5602093836130e0565b8101031261049457516001600160e01b03198116810361049457905f613710565b3d91506137a8565b906137e882613101565b6137f560405191826130e0565b8281528092613806601f1991613101565b0190602036910137565b805f9172184f03e93ff9f4daa797ed6e38ed64bf6a1f0160401b821015613935575b806d04ee2d6d415b85acef8100000000600a92101561391a575b662386f26fc10000811015613906575b6305f5e1008110156138f5575b6127108110156138e6575b60648110156138d8575b10156138cd575b600a6021613895600185016137de565b938401015b5f1901916f181899199a1a9b1b9c1cb0b131b232b360811b8282061a83530480156138c857600a909161389a565b505090565b600190910190613885565b60646002910493019261387e565b61271060049104930192613874565b6305f5e10060089104930192613869565b662386f26fc100006010910493019261385c565b6d04ee2d6d415b85acef81000000006020910493019261384c565b506040915072184f03e93ff9f4daa797ed6e38ed64bf6a1f0160401b8104613832565b60038110156104635780156139d057600181146139ad5760021461398a576040516139846020826130e0565b5f815290565b6040516139986040826130e0565b600581526410591d5b1d60da1b602082015290565b506040516139bc6040826130e0565b60048152632a22a2a760e11b602082015290565b506040516139df6040826130e0565b60048152634261627960e01b602082015290565b919091805115613ad4578051600281018091116104315760039004600281901b906001600160fe1b0381160361043157613a2c906137de565b90602082019080815182019560208701908151925f83525b888110613a865750506003939495965052510680600114613a7457600214613a6a575090565b603d905f19015390565b50603d90815f19820153600119015390565b600360049199969901986001603f8b5182828260121c16870101518453828282600c1c16870101518385015382828260061c1687010151600285015316840101516003820153019497613a44565b5090506040516139846020826130e056fea2646970667358221220981d257b1be98380def880292fe7412bf49a1a8b20cccb6fc8e674afffb1dfdc64736f6c634300081c0033",
  "linkReferences": {},
  "deployedLinkReferences": {},
  "immutableReferences": {
    "7224": [
      {
        "length": 32,
        "start": 6924
      },
      {
        "length": 32,
        "start": 7686
      },
      {
        "length": 32,
        "start": 8783
      }
    ],
    "7226": [
      {
        "length": 32,
        "start": 6563
      },
      {
        "length": 32,
        "start": 8842
      }
    ],
    "7228": [
      {
        "length": 32,
        "start": 2016
      },
      {
        "length": 32,
        "start": 8875
      }
    ],
    "7230": [
      {
        "length": 32,
        "start": 8909
      },
      {
        "length": 32,
        "start": 10982
      }
    ],
    "7232": [
      {
        "length": 32,
        "start": 7363
      },
      {
        "length": 32,
        "start": 8943
      }
    ],
    "7234": [
      {
        "length": 32,
        "start": 8604
      },
      {
        "length": 32,
        "start": 8977
      }
    ],
    "7236": [
      {
        "length": 32,
        "start": 9011
      },
      {
        "length": 32,
        "start": 10356
      }
    ],
    "7238": [
      {
        "length": 32,
        "start": 9044
      },
      {
        "length": 32,
        "start": 11111
      }
    ],
    "7240": [
      {
        "length": 32,
        "start": 1837
      },
      {
        "length": 32,
        "start": 9078
      }
    ],
    "7242": [
      {
        "length": 32,
        "start": 8689
      },
      {
        "length": 32,
        "start": 9146
      }
    ],
    "7244": [
      {
        "length": 32,
        "start": 7305
      },
      {
        "length": 32,
        "start": 9112
      }
    ],
    "7246": [
      {
        "length": 32,
        "start": 6031
      },
      {
        "length": 32,
        "start": 9180
      }
    ],
    "7320": [
      {
        "length": 32,
        "start": 2069
      },
      {
        "length": 32,
        "start": 7235
      }
    ],
    "7326": [
      {
        "length": 32,
        "start": 2278
      },
      {
        "length": 32,
        "start": 2738
      }
    ],
    "7328": [
      {
        "length": 32,
        "start": 2238
      },
      {
        "length": 32,
        "start": 10443
      }
    ],
    "7330": [
      {
        "length": 32,
        "start": 2335
      },
      {
        "length": 32,
        "start": 2679
      }
    ],
    "7338": [
      {
        "length": 32,
        "start": 11167
      }
    ]
  },
  "inputSourceName": "project/contracts/Tamagotchi.sol",
  "buildInfoId": "solc-0_8_28-0a8012746f7bf0e3d49fd43492172332d0b6f9cc"
}