{
  "_format": "hh3-artifact-1",
  "contractName": "MyVRFCoordinatorV2_5Mock",
  "sourceName": "contracts/VRFCoordinatorV2_5Mock.sol",
  "abi": [
    {
      "inputs": [
        {
          "internalType": "uint96",
          "name": "baseFee",
          "type": "uint96"
        },
        {
          "internalType": "uint96",
          "name": "gasPriceLink",
          "type": "uint96"
        },
        {
          "internalType": "int256",
          "name": "wei_per_unit_link",
          "type": "int256"
        }
      ],
      "stateMutability": "nonpayable",
      "type": "constructor"
    },
    {
      "inputs": [
        {
          "internalType": "uint256",
          "name": "internalBalance",
          "type": "uint256"
        },
        {
          "internalType": "uint256",
          "name": "externalBalance",
          "type": "uint256"
        }
      ],
      "name": "BalanceInvariantViolated",
      "type": "error"
    },
    {
      "inputs": [],
      "name": "FailedToSendNative",
      "type": "error"
    },
    {
      "inputs": [],
      "name": "FailedToTransferLink",
      "type": "error"
    },
    {
      "inputs": [],
      "name": "IndexOutOfRange",
      "type": "error"
    },
    {
      "inputs": [],
      "name": "InsufficientBalance",
      "type": "error"
    },
    {
      "inputs": [],
      "name": "InvalidCalldata",
      "type": "error"
    },
    {
      "inputs": [
        {
          "internalType": "uint256",
          "name": "subId",
          "type": "uint256"
        },
        {
          "internalType": "address",
          "name": "consumer",
          "type": "address"
        }
      ],
      "name": "InvalidConsumer",
      "type": "error"
    },
    {
      "inputs": [],
      "name": "InvalidExtraArgsTag",
      "type": "error"
    },
    {
      "inputs": [],
      "name": "InvalidRandomWords",
      "type": "error"
    },
    {
      "inputs": [],
      "name": "InvalidRequest",
      "type": "error"
    },
    {
      "inputs": [],
      "name": "InvalidSubscription",
      "type": "error"
    },
    {
      "inputs": [],
      "name": "LinkAlreadySet",
      "type": "error"
    },
    {
      "inputs": [],
      "name": "LinkNotSet",
      "type": "error"
    },
    {
      "inputs": [
        {
          "internalType": "address",
          "name": "proposedOwner",
          "type": "address"
        }
      ],
      "name": "MustBeRequestedOwner",
      "type": "error"
    },
    {
      "inputs": [
        {
          "internalType": "address",
          "name": "owner",
          "type": "address"
        }
      ],
      "name": "MustBeSubOwner",
      "type": "error"
    },
    {
      "inputs": [],
      "name": "NotImplemented",
      "type": "error"
    },
    {
      "inputs": [],
      "name": "OnlyCallableFromLink",
      "type": "error"
    },
    {
      "inputs": [],
      "name": "PendingRequestExists",
      "type": "error"
    },
    {
      "inputs": [],
      "name": "Reentrant",
      "type": "error"
    },
    {
      "inputs": [],
      "name": "TooManyConsumers",
      "type": "error"
    },
    {
      "anonymous": false,
      "inputs": [],
      "name": "ConfigSet",
      "type": "event"
    },
    {
      "anonymous": false,
      "inputs": [
        {
          "indexed": false,
          "internalType": "address",
          "name": "to",
          "type": "address"
        },
        {
          "indexed": false,
          "internalType": "uint256",
          "name": "amount",
          "type": "uint256"
        }
      ],
      "name": "FundsRecovered",
      "type": "event"
    },
    {
      "anonymous": false,
      "inputs": [
        {
          "indexed": false,
          "internalType": "address",
          "name": "to",
          "type": "address"
        },
        {
          "indexed": false,
          "internalType": "uint256",
          "name": "amount",
          "type": "uint256"
        }
      ],
      "name": "NativeFundsRecovered",
      "type": "event"
    },
    {
      "anonymous": false,
      "inputs": [
        {
          "indexed": true,
          "internalType": "address",
          "name": "from",
          "type": "address"
        },
        {
          "indexed": true,
          "internalType": "address",
          "name": "to",
          "type": "address"
        }
      ],
      "name": "OwnershipTransferRequested",
      "type": "event"
    },
    {
      "anonymous": false,
      "inputs": [
        {
          "indexed": true,
          "internalType": "address",
          "name": "from",
          "type": "address"
        },
        {
          "indexed": true,
          "internalType": "address",
          "name": "to",
          "type": "address"
        }
      ],
      "name": "OwnershipTransferred",
      "type": "event"
    },
    {
      "anonymous": false,
      "inputs": [
        {
          "indexed": true,
          "internalType": "uint256",
          "name": "requestId",
          "type": "uint256"
        },
        {
          "indexed": false,
          "internalType": "uint256",
          "name": "outputSeed",
          "type": "uint256"
        },
        {
          "indexed": true,
          "internalType": "uint256",
          "name": "subId",
          "type": "uint256"
        },
        {
          "indexed": false,
          "internalType": "uint96",
          "name": "payment",
          "type": "uint96"
        },
        {
          "indexed": false,
          "internalType": "bool",
          "name": "nativePayment",
          "type": "bool"
        },
        {
          "indexed": false,
          "internalType": "bool",
          "name": "success",
          "type": "bool"
        },
        {
          "indexed": false,
          "internalType": "bool",
          "name": "onlyPremium",
          "type": "bool"
        }
      ],
      "name": "RandomWordsFulfilled",
      "type": "event"
    },
    {
      "anonymous": false,
      "inputs": [
        {
          "indexed": true,
          "internalType": "bytes32",
          "name": "keyHash",
          "type": "bytes32"
        },
        {
          "indexed": false,
          "internalType": "uint256",
          "name": "requestId",
          "type": "uint256"
        },
        {
          "indexed": false,
          "internalType": "uint256",
          "name": "preSeed",
          "type": "uint256"
        },
        {
          "indexed": true,
          "internalType": "uint256",
          "name": "subId",
          "type": "uint256"
        },
        {
          "indexed": false,
          "internalType": "uint16",
          "name": "minimumRequestConfirmations",
          "type": "uint16"
        },
        {
          "indexed": false,
          "internalType": "uint32",
          "name": "callbackGasLimit",
          "type": "uint32"
        },
        {
          "indexed": false,
          "internalType": "uint32",
          "name": "numWords",
          "type": "uint32"
        },
        {
          "indexed": false,
          "internalType": "bytes",
          "name": "extraArgs",
          "type": "bytes"
        },
        {
          "indexed": true,
          "internalType": "address",
          "name": "sender",
          "type": "address"
        }
      ],
      "name": "RandomWordsRequested",
      "type": "event"
    },
    {
      "anonymous": false,
      "inputs": [
        {
          "indexed": true,
          "internalType": "uint256",
          "name": "subId",
          "type": "uint256"
        },
        {
          "indexed": false,
          "internalType": "address",
          "name": "to",
          "type": "address"
        },
        {
          "indexed": false,
          "internalType": "uint256",
          "name": "amountLink",
          "type": "uint256"
        },
        {
          "indexed": false,
          "internalType": "uint256",
          "name": "amountNative",
          "type": "uint256"
        }
      ],
      "name": "SubscriptionCanceled",
      "type": "event"
    },
    {
      "anonymous": false,
      "inputs": [
        {
          "indexed": true,
          "internalType": "uint256",
          "name": "subId",
          "type": "uint256"
        },
        {
          "indexed": false,
          "internalType": "address",
          "name": "consumer",
          "type": "address"
        }
      ],
      "name": "SubscriptionConsumerAdded",
      "type": "event"
    },
    {
      "anonymous": false,
      "inputs": [
        {
          "indexed": true,
          "internalType": "uint256",
          "name": "subId",
          "type": "uint256"
        },
        {
          "indexed": false,
          "internalType": "address",
          "name": "consumer",
          "type": "address"
        }
      ],
      "name": "SubscriptionConsumerRemoved",
      "type": "event"
    },
    {
      "anonymous": false,
      "inputs": [
        {
          "indexed": true,
          "internalType": "uint256",
          "name": "subId",
          "type": "uint256"
        },
        {
          "indexed": false,
          "internalType": "address",
          "name": "owner",
          "type": "address"
        }
      ],
      "name": "SubscriptionCreated",
      "type": "event"
    },
    {
      "anonymous": false,
      "inputs": [
        {
          "indexed": true,
          "internalType": "uint256",
          "name": "subId",
          "type": "uint256"
        },
        {
          "indexed": false,
          "internalType": "uint256",
          "name": "oldBalance",
          "type": "uint256"
        },
        {
          "indexed": false,
          "internalType": "uint256",
          "name": "newBalance",
          "type": "uint256"
        }
      ],
      "name": "SubscriptionFunded",
      "type": "event"
    },
    {
      "anonymous": false,
      "inputs": [
        {
          "indexed": true,
          "internalType": "uint256",
          "name": "subId",
          "type": "uint256"
        },
        {
          "indexed": false,
          "internalType": "uint256",
          "name": "oldNativeBalance",
          "type": "uint256"
        },
        {
          "indexed": false,
          "internalType": "uint256",
          "name": "newNativeBalance",
          "type": "uint256"
        }
      ],
      "name": "SubscriptionFundedWithNative",
      "type": "event"
    },
    {
      "anonymous": false,
      "inputs": [
        {
          "indexed": true,
          "internalType": "uint256",
          "name": "subId",
          "type": "uint256"
        },
        {
          "indexed": false,
          "internalType": "address",
          "name": "from",
          "type": "address"
        },
        {
          "indexed": false,
          "internalType": "address",
          "name": "to",
          "type": "address"
        }
      ],
      "name": "SubscriptionOwnerTransferRequested",
      "type": "event"
    },
    {
      "anonymous": false,
      "inputs": [
        {
          "indexed": true,
          "internalType": "uint256",
          "name": "subId",
          "type": "uint256"
        },
        {
          "indexed": false,
          "internalType": "address",
          "name": "from",
          "type": "address"
        },
        {
          "indexed": false,
          "internalType": "address",
          "name": "to",
          "type": "address"
        }
      ],
      "name": "SubscriptionOwnerTransferred",
      "type": "event"
    },
    {
      "inputs": [],
      "name": "LINK",
      "outputs": [
        {
          "internalType": "contract LinkTokenInterface",
          "name": "",
          "type": "address"
        }
      ],
      "stateMutability": "view",
      "type": "function"
    },
    {
      "inputs": [],
      "name": "LINK_NATIVE_FEED",
      "outputs": [
        {
          "internalType": "contract AggregatorV3Interface",
          "name": "",
          "type": "address"
        }
      ],
      "stateMutability": "view",
      "type": "function"
    },
    {
      "inputs": [],
      "name": "MAX_CONSUMERS",
      "outputs": [
        {
          "internalType": "uint16",
          "name": "",
          "type": "uint16"
        }
      ],
      "stateMutability": "view",
      "type": "function"
    },
    {
      "inputs": [],
      "name": "acceptOwnership",
      "outputs": [],
      "stateMutability": "nonpayable",
      "type": "function"
    },
    {
      "inputs": [
        {
          "internalType": "uint256",
          "name": "subId",
          "type": "uint256"
        }
      ],
      "name": "acceptSubscriptionOwnerTransfer",
      "outputs": [],
      "stateMutability": "nonpayable",
      "type": "function"
    },
    {
      "inputs": [
        {
          "internalType": "uint256",
          "name": "subId",
          "type": "uint256"
        },
        {
          "internalType": "address",
          "name": "consumer",
          "type": "address"
        }
      ],
      "name": "addConsumer",
      "outputs": [],
      "stateMutability": "nonpayable",
      "type": "function"
    },
    {
      "inputs": [
        {
          "internalType": "uint256",
          "name": "_subId",
          "type": "uint256"
        },
        {
          "internalType": "address",
          "name": "_to",
          "type": "address"
        }
      ],
      "name": "cancelSubscription",
      "outputs": [],
      "stateMutability": "nonpayable",
      "type": "function"
    },
    {
      "inputs": [
        {
          "internalType": "uint256",
          "name": "_subId",
          "type": "uint256"
        },
        {
          "internalType": "address",
          "name": "_consumer",
          "type": "address"
        }
      ],
      "name": "consumerIsAdded",
      "outputs": [
        {
          "internalType": "bool",
          "name": "",
          "type": "bool"
        }
      ],
      "stateMutability": "view",
      "type": "function"
    },
    {
      "inputs": [],
      "name": "createSubscription",
      "outputs": [
        {
          "internalType": "uint256",
          "name": "subId",
          "type": "uint256"
        }
      ],
      "stateMutability": "nonpayable",
      "type": "function"
    },
    {
      "inputs": [
        {
          "internalType": "uint256",
          "name": "_requestId",
          "type": "uint256"
        },
        {
          "internalType": "address",
          "name": "_consumer",
          "type": "address"
        }
      ],
      "name": "fulfillRandomWords",
      "outputs": [],
      "stateMutability": "nonpayable",
      "type": "function"
    },
    {
      "inputs": [
        {
          "internalType": "uint256",
          "name": "_requestId",
          "type": "uint256"
        },
        {
          "internalType": "address",
          "name": "_consumer",
          "type": "address"
        },
        {
          "internalType": "uint256[]",
          "name": "_words",
          "type": "uint256[]"
        }
      ],
      "name": "fulfillRandomWordsWithOverride",
      "outputs": [],
      "stateMutability": "nonpayable",
      "type": "function"
    },
    {
      "inputs": [
        {
          "internalType": "uint256",
          "name": "_subId",
          "type": "uint256"
        },
        {
          "internalType": "uint256",
          "name": "_amount",
          "type": "uint256"
        }
      ],
      "name": "fundSubscription",
      "outputs": [],
      "stateMutability": "nonpayable",
      "type": "function"
    },
    {
      "inputs": [
        {
          "internalType": "uint256",
          "name": "subId",
          "type": "uint256"
        }
      ],
      "name": "fundSubscriptionWithNative",
      "outputs": [],
      "stateMutability": "payable",
      "type": "function"
    },
    {
      "inputs": [
        {
          "internalType": "uint256",
          "name": "startIndex",
          "type": "uint256"
        },
        {
          "internalType": "uint256",
          "name": "maxCount",
          "type": "uint256"
        }
      ],
      "name": "getActiveSubscriptionIds",
      "outputs": [
        {
          "internalType": "uint256[]",
          "name": "ids",
          "type": "uint256[]"
        }
      ],
      "stateMutability": "view",
      "type": "function"
    },
    {
      "inputs": [
        {
          "internalType": "uint256",
          "name": "subId",
          "type": "uint256"
        }
      ],
      "name": "getSubscription",
      "outputs": [
        {
          "internalType": "uint96",
          "name": "balance",
          "type": "uint96"
        },
        {
          "internalType": "uint96",
          "name": "nativeBalance",
          "type": "uint96"
        },
        {
          "internalType": "uint64",
          "name": "reqCount",
          "type": "uint64"
        },
        {
          "internalType": "address",
          "name": "subOwner",
          "type": "address"
        },
        {
          "internalType": "address[]",
          "name": "consumers",
          "type": "address[]"
        }
      ],
      "stateMutability": "view",
      "type": "function"
    },
    {
      "inputs": [],
      "name": "i_base_fee",
      "outputs": [
        {
          "internalType": "uint96",
          "name": "",
          "type": "uint96"
        }
      ],
      "stateMutability": "view",
      "type": "function"
    },
    {
      "inputs": [],
      "name": "i_gas_price",
      "outputs": [
        {
          "internalType": "uint96",
          "name": "",
          "type": "uint96"
        }
      ],
      "stateMutability": "view",
      "type": "function"
    },
    {
      "inputs": [],
      "name": "i_wei_per_unit_link",
      "outputs": [
        {
          "internalType": "int256",
          "name": "",
          "type": "int256"
        }
      ],
      "stateMutability": "view",
      "type": "function"
    },
    {
      "inputs": [
        {
          "internalType": "address",
          "name": "",
          "type": "address"
        },
        {
          "internalType": "uint256",
          "name": "amount",
          "type": "uint256"
        },
        {
          "internalType": "bytes",
          "name": "data",
          "type": "bytes"
        }
      ],
      "name": "onTokenTransfer",
      "outputs": [],
      "stateMutability": "nonpayable",
      "type": "function"
    },
    {
      "inputs": [],
      "name": "owner",
      "outputs": [
        {
          "internalType": "address",
          "name": "",
          "type": "address"
        }
      ],
      "stateMutability": "view",
      "type": "function"
    },
    {
      "inputs": [
        {
          "internalType": "uint256",
          "name": "subId",
          "type": "uint256"
        }
      ],
      "name": "ownerCancelSubscription",
      "outputs": [],
      "stateMutability": "nonpayable",
      "type": "function"
    },
    {
      "inputs": [
        {
          "internalType": "uint256",
          "name": "",
          "type": "uint256"
        }
      ],
      "name": "pendingRequestExists",
      "outputs": [
        {
          "internalType": "bool",
          "name": "",
          "type": "bool"
        }
      ],
      "stateMutability": "pure",
      "type": "function"
    },
    {
      "inputs": [
        {
          "internalType": "address",
          "name": "to",
          "type": "address"
        }
      ],
      "name": "recoverFunds",
      "outputs": [],
      "stateMutability": "nonpayable",
      "type": "function"
    },
    {
      "inputs": [
        {
          "internalType": "address payable",
          "name": "to",
          "type": "address"
        }
      ],
      "name": "recoverNativeFunds",
      "outputs": [],
      "stateMutability": "nonpayable",
      "type": "function"
    },
    {
      "inputs": [
        {
          "internalType": "uint256",
          "name": "_subId",
          "type": "uint256"
        },
        {
          "internalType": "address",
          "name": "_consumer",
          "type": "address"
        }
      ],
      "name": "removeConsumer",
      "outputs": [],
      "stateMutability": "nonpayable",
      "type": "function"
    },
    {
      "inputs": [
        {
          "components": [
            {
              "internalType": "bytes32",
              "name": "keyHash",
              "type": "bytes32"
            },
            {
              "internalType": "uint256",
              "name": "subId",
              "type": "uint256"
            },
            {
              "internalType": "uint16",
              "name": "requestConfirmations",
              "type": "uint16"
            },
            {
              "internalType": "uint32",
              "name": "callbackGasLimit",
              "type": "uint32"
            },
            {
              "internalType": "uint32",
              "name": "numWords",
              "type": "uint32"
            },
            {
              "internalType": "bytes",
              "name": "extraArgs",
              "type": "bytes"
            }
          ],
          "internalType": "struct VRFV2PlusClient.RandomWordsRequest",
          "name": "_req",
          "type": "tuple"
        }
      ],
      "name": "requestRandomWords",
      "outputs": [
        {
          "internalType": "uint256",
          "name": "",
          "type": "uint256"
        }
      ],
      "stateMutability": "nonpayable",
      "type": "function"
    },
    {
      "inputs": [
        {
          "internalType": "uint256",
          "name": "subId",
          "type": "uint256"
        },
        {
          "internalType": "address",
          "name": "newOwner",
          "type": "address"
        }
      ],
      "name": "requestSubscriptionOwnerTransfer",
      "outputs": [],
      "stateMutability": "nonpayable",
      "type": "function"
    },
    {
      "inputs": [],
      "name": "s_config",
      "outputs": [
        {
          "internalType": "uint16",
          "name": "minimumRequestConfirmations",
          "type": "uint16"
        },
        {
          "internalType": "uint32",
          "name": "maxGasLimit",
          "type": "uint32"
        },
        {
          "internalType": "bool",
          "name": "reentrancyLock",
          "type": "bool"
        },
        {
          "internalType": "uint32",
          "name": "stalenessSeconds",
          "type": "uint32"
        },
        {
          "internalType": "uint32",
          "name": "gasAfterPaymentCalculation",
          "type": "uint32"
        },
        {
          "internalType": "uint32",
          "name": "fulfillmentFlatFeeNativePPM",
          "type": "uint32"
        },
        {
          "internalType": "uint32",
          "name": "fulfillmentFlatFeeLinkDiscountPPM",
          "type": "uint32"
        },
        {
          "internalType": "uint8",
          "name": "nativePremiumPercentage",
          "type": "uint8"
        },
        {
          "internalType": "uint8",
          "name": "linkPremiumPercentage",
          "type": "uint8"
        }
      ],
      "stateMutability": "view",
      "type": "function"
    },
    {
      "inputs": [],
      "name": "s_currentSubNonce",
      "outputs": [
        {
          "internalType": "uint64",
          "name": "",
          "type": "uint64"
        }
      ],
      "stateMutability": "view",
      "type": "function"
    },
    {
      "inputs": [],
      "name": "s_totalBalance",
      "outputs": [
        {
          "internalType": "uint96",
          "name": "",
          "type": "uint96"
        }
      ],
      "stateMutability": "view",
      "type": "function"
    },
    {
      "inputs": [],
      "name": "s_totalNativeBalance",
      "outputs": [
        {
          "internalType": "uint96",
          "name": "",
          "type": "uint96"
        }
      ],
      "stateMutability": "view",
      "type": "function"
    },
    {
      "inputs": [],
      "name": "setConfig",
      "outputs": [],
      "stateMutability": "nonpayable",
      "type": "function"
    },
    {
      "inputs": [
        {
          "internalType": "address",
          "name": "link",
          "type": "address"
        },
        {
          "internalType": "address",
          "name": "linkNativeFeed",
          "type": "address"
        }
      ],
      "name": "setLINKAndLINKNativeFeed",
      "outputs": [],
      "stateMutability": "nonpayable",
      "type": "function"
    },
    {
      "inputs": [
        {
          "internalType": "address",
          "name": "to",
          "type": "address"
        }
      ],
      "name": "transferOwnership",
      "outputs": [],
      "stateMutability": "nonpayable",
      "type": "function"
    },
    {
      "inputs": [
        {
          "internalType": "address",
          "name": "recipient",
          "type": "address"
        }
      ],
      "name": "withdraw",
      "outputs": [],
      "stateMutability": "nonpayable",
      "type": "function"
    },
    {
      "inputs": [
        {
          "internalType": "address payable",
          "name": "recipient",
          "type": "address"
        }
      ],
      "name": "withdrawNative",
      "outputs": [],
      "stateMutability": "nonpayable",
      "type": "function"
    }
  ],
  "bytecode": "0x60e0604052346101a757604051601f612a9e38819003918201601f19168301916001600160401b0383118484101761014e578084926060946040528339810103126101a75761004d816101ab565b90604061005c602083016101ab565b910151913315610162575f80546001600160a01b031916331790556001600e556064600f5560805260a05260c05260405161012081016001600160401b0381118282101761014e575f91610100916040528281528260208201528260408201528260608201528260808201528260a08201528260c08201528260e0820152015260018060c81b0319600c5416600c556040517f4b2974a542484cba2783812ff8033f7fc682cac2fe0905c28c5e27869b3155be5f80a16128de90816101c082396080518181816119060152611ff8015260a05181818161042e0152611fb9015260c05181818161199201526121fb0152f35b634e487b7160e01b5f52604160045260245ffd5b60405162461bcd60e51b815260206004820152601860248201527f43616e6e6f7420736574206f776e657220746f207a65726f00000000000000006044820152606490fd5b5f80fd5b51906001600160601b03821682036101a75756fe6080806040526004361015610012575f80fd5b5f3560e01c908163088070f514611b6f5750806308e3898e14611adc5780630ae0954014611a31578063115e3c0d146119b5578063134783291461197b57806318e3dd27146119525780631b6b6d231461192a5780631eebc117146118e75780632f622e6b1461183d57806341af6c871461181d57806351cff8d91461173257806364d51a2a1461171757806365982744146116a057806372e9d5651461167857806379ba5097146115cd578063808974ff1461158b5780638402595e146114dd57806386fe91c7146114b75780638b673e7a1461140d5780638da5cb5b146113e6578063953e9c751461139d57806395b55cfc1461128c5780639b1c385e14610f175780639d40a6fd14610ef1578063a21a23e414610cb3578063a4c0ed3614610b51578063aa433aff146109ee578063aefb212f14610916578063b2a7cac51461081d578063bec4c08c146107e5578063cb631797146105d5578063dac83d2914610529578063dc311dd314610452578063dcab3dcf1461040f578063e72f6e30146102675763f2fde38b146101a8575f80fd5b34610263576020366003190112610263576101c1611c14565b6101c9612653565b6001600160a01b031633811461021e57600180546001600160a01b031916821790555f80546001600160a01b0316907fed8889f560326eb138920d842192f0eb3dd22b4f139c87a2c57538e05bae12789080a3005b60405162461bcd60e51b815260206004820152601760248201527f43616e6e6f74207472616e7366657220746f2073656c660000000000000000006044820152606490fd5b5f80fd5b3461026357602036600319011261026357610280611c14565b610288612653565b6002546001600160a01b03168015610400576040516370a0823160e01b8152306004820152602081602481855afa9081156103ae575f916103ce575b506001600160601b03600a54168181116103b9578181106102e157005b6102ea91611dc4565b60405163a9059cbb60e01b81526001600160a01b0384166004820152602481018290529091602090829060449082905f905af19081156103ae575f9161037f575b501561037057604080516001600160a01b0393909316835260208301919091527f59bfc682b673f8cbf945f1e454df9334834abf7dfe7f92237ca29ecb9b43660091a1005b631f01ff1360e21b5f5260045ffd5b6103a1915060203d6020116103a7575b6103998183611c7b565b81019061232c565b8361032b565b503d61038f565b6040513d5f823e3d90fd5b6354ced18160e11b5f5260045260245260445ffd5b90506020813d6020116103f8575b816103e960209383611c7b565b810103126102635751836102c4565b3d91506103dc565b63c1f0c0a160e01b5f5260045ffd5b34610263575f3660031901126102635760206040516001600160601b037f0000000000000000000000000000000000000000000000000000000000000000168152f35b34610263576020366003190112610263576004355f818152600560205260409020546001600160a01b0316610486816126bc565b5f91825260066020908152604080842054600590925290922060c083901c926001600160601b03606082901c811693929116906104c59060020161245c565b9160405194859460a0860193865260208601526040850152606084015260a060808401528151809152602060c084019201905f5b818110610507575050500390f35b82516001600160a01b03168452859450602093840193909201916001016104f9565b3461026357604036600319011261026357600435610545611bfe565b61054e826124af565b6105566124eb565b5f82815260056020526040902060010180546001600160a01b039081169083160361057d57005b80546001600160a01b0319166001600160a01b0390921691821790556040805133815260208101929092527f21a4dad170a6bf476c31bbcf4a16628295b0e450672eec25d7c93308e05344a19190819081015b0390a2005b34610263576040366003190112610263576004356105f1611bfe565b6105fa826124af565b60018060a01b0316805f52600460205260405f20825f5260205260ff60405f205416156107cf576106296124eb565b805f52600460205260405f20825f5260205260ff60405f205416156107cf57815f52600560205261065f600260405f200161245c565b80515f19810192919083116107bb575f5b815181101561078e57826001600160a01b0361068c8385611d66565b51161461069b57600101610670565b91926106f492916106d0916001600160a01b03916106b99190611d66565b511691855f526005602052600260405f2001612395565b81546001600160a01b0393841660039290921b91821b9390911b1916919091179055565b815f526005602052600260405f200190815490811561077a577f32158c6058347c1601b2d12bc696ac6901d8a9a9aa3ba10c27ab0a983e8425a7926020925f1901906107408282612395565b81549060018060a01b039060031b1b19169055555b805f526004825260405f20845f52825260405f2060ff198154169055604051908152a2005b634e487b7160e01b5f52603160045260245ffd5b50507f32158c6058347c1601b2d12bc696ac6901d8a9a9aa3ba10c27ab0a983e8425a79150602090610755565b634e487b7160e01b5f52601160045260245ffd5b906379bfd40160e01b5f5260045260245260445ffd5b346102635760403660031901126102635761081b600435610804611bfe565b9061080e816124af565b6108166124eb565b6123aa565b005b34610263576020366003190112610263576004356108396124eb565b5f818152600560205260409020546001600160a01b0316610859816126bc565b5f828152600560205260409020600101546001600160a01b031633036108e9575f8281526005602090815260409182902080546001600160a01b031990811633908117835560019092018054909116905582516001600160a01b039094168452908301527fd4114ab6e9af9f597c52041f32d62dc57c5c4e4c0d4427006069635e216c93869190819081016105d0565b505f9081526005602052604081206001015463d084e97560e01b82526001600160a01b0316600452602490fd5b346102635761092436611cb3565b60085490818310156109df576109589181610940859384611dd1565b908282119081156109d6575b50156109cf5750611dc4565b61096181611d34565b905f92600854935b82811061098a576040516020808252819061098690820187611cc9565b0390f35b6109948282611dd1565b90858210156109bb5760019160085f5260205f2001546109b48287611d66565b5201610969565b634e487b7160e01b5f52603260045260245ffd5b9050611dc4565b9050158661094c565b631390f2a160e01b5f5260045ffd5b3461026357602036600319011261026357600435610a0a612653565b5f818152600560205260409020546001600160a01b0316610a2a816126bc565b610a3382612509565b6002549092906001600160a01b031680151580610b3f575b610abd575b506105d083610a896001600160601b037f8c74ce8b8cf87f5eb001275c8be27eb34ea2b62bfab6814fcc62192bb63e81c49616846126a4565b604080516001600160a01b0390941684526001600160601b0394851660208501529316928201929092529081906060820190565b60405163a9059cbb60e01b81526001600160a01b03831660048201526001600160601b038416602482015290602090829060449082905f905af19081156103ae575f91610b20575b5015610b115784610a50565b631e9acf1760e31b5f5260045ffd5b610b39915060203d6020116103a7576103998183611c7b565b85610b05565b506001600160601b0383161515610a4b565b3461026357606036600319011261026357610b6a611c14565b506024356044356001600160401b03811161026357366023820112156102635780600401356001600160401b038111610263578082019036602483011161026357610bb36124eb565b6002546001600160a01b03163303610ca457602003610c95576020908290031261026357604060247f1ced9348ff549fceab2ac57cd3a9de38edaaab274b725ee82c23e8fc8c4eec7a92013592835f526005602052610c1c60018060a01b03835f2054166126bc565b5f848152600660205282902080546001600160601b0390811692610c889290918281169190610c4b83876122ec565b166001600160601b03198254161790556001600160601b03610c72600a54928284166122ec565b16906001600160601b03191617600a5582611dd1565b82519182526020820152a2005b638129bbcd60e01b5f5260045ffd5b6344b0e3c360e01b5f5260045ffd5b34610263575f36600319011261026357610ccb6124eb565b6007545f1943014381116107bb5760405160208101913360601b83524060348201523060601b60548201526001600160401b0360c01b8360c01b16606882015260508152610d1a607082611c7b565b5190209060016001600160401b038216016001600160401b0381116107bb576001600160401b0316906001600160401b03191617600755602090604051610d618382611c7b565b5f81525f368137604051610d7481611c45565b5f8082528482018181526040808401838152868452600688529281902093519151925160c01b6001600160c01b031916600160601b600160c01b0360609490941b939093166001600160601b03909216919091179190911790915551600290610ddc81611c45565b3381525f858201818152604080840195865286835260058852909120915182546001600160a01b03199081166001600160a01b0392831617845591516001840180549093169116179055915180519291909101906001600160401b038311610edd57600160401b8311610edd5784908254848455808510610ec2575b5001905f52835f205f5b838110610ea7578585610e748161278c565b50807f1d3015d7ba850fa198dc7b1a3f5d42779313a681035f77c8c03764c61005518d83604051338152a2604051908152f35b82516001600160a01b03168282015591850191600101610e62565b610ed790845f5285845f209182019101611dde565b86610e58565b634e487b7160e01b5f52604160045260245ffd5b34610263575f3660031901126102635760206001600160401b0360075416604051908152f35b34610263576020366003190112610263576004356001600160401b038111610263578060040160c0600319833603011261026357610f536124eb565b602482013590335f52600460205260405f20825f5260205260ff60405f20541615611275575f828152600560205260409020546001600160a01b03161561126657600e5491610fa183612344565b600e55600f54610fb081612344565b600f5560a4850194610fcb610fc58786612352565b906126cc565b91604051602081019363125fa26760e31b8552511515602482015260248152610ff5604482611c7b565b606483019261100384612384565b98608482019961101c6110158c612384565b928a612352565b9290916040519161102c83611c2a565b8a835263ffffffff602084019216825263ffffffff604084019116815261105285611d7a565b946110606040519687611c7b565b8086523681860111610263576020815f92600297838a013787010152606083019485528c5f52601060205260405f209251835563ffffffff6001840192511667ffffffff000000008354925160201b16916001600160401b031916171790550190518051906001600160401b038211610edd576110dd8354611cfc565b601f811161122b575b50602090601f83116001146111c4576044949392915f91836111b9575b50508160011b915f199060031b1c19161790555b01359761ffff89168099036102635760209863ffffffff809261116361115d7feb0e3652e0f44f417695e6e90f2f42c99b65cd7169074c5a654b16b9748c3a4e98612384565b91612384565b92604051968c88528d880152604087015216606085015216608083015260c060a08301525180938160c084015260e083015e5f60e0848301015260e08133963594601f80199101168101030190a4604051908152f35b015190508d80611103565b90601f19831691845f52815f20925f5b8181106112135750916001939185604498979694106111fb575b505050811b019055611117565b01515f1960f88460031b161c191690558d80806111ee565b929360206001819287860151815501950193016111d4565b61125690845f5260205f20601f850160051c8101916020861061125c575b601f0160051c0190611dde565b8c6110e6565b9091508190611249565b630fb532db60e11b5f5260045ffd5b506379bfd40160e01b5f526004523360245260445ffd5b6020366003190112610263576004356112a36124eb565b5f818152600560205260409020546112c3906001600160a01b03166126bc565b805f5260066020527f7603b205d03651ee812f803fccde89f1012e545a9c99f0abfea9cedd0fd8e90260406001600160601b03815f205460601c166001600160601b033416845f526006602052611358835f2061132d836001600160601b03835460601c166122ec565b81546bffffffffffffffffffffffff60601b191660609190911b600160601b600160c01b0316179055565b600a549061137d6001600160601b0360601b916001600160601b038460601c166122ec565b60601b16906001600160601b0360601b191617600a55610c883482611dd1565b34610263576040366003190112610263576001600160a01b036113be611bfe565b165f52600460205260405f206004355f52602052602060ff60405f2054166040519015158152f35b34610263575f366003190112610263575f546040516001600160a01b039091168152602090f35b34610263575f36600319011261026357611425612653565b60405161012081018181106001600160401b03821117610edd5760409081525f80835260208301819052908201819052606082018190526080820181905260a0820181905260c0820181905260e08201819052610100909101819052600c80546001600160c81b03191690557f4b2974a542484cba2783812ff8033f7fc682cac2fe0905c28c5e27869b3155be9080a1005b34610263575f3660031901126102635760206001600160601b03600a5416604051908152f35b34610263576020366003190112610263576004356001600160a01b038116908190036102635761150b612653565b476001600160601b03600a5460601c168181116103b95781811061152b57005b61153491611dc4565b5f80808084865af1611544611d95565b501561157c577f4aed7c8eed0496c8c19ea2681fcca25741c1602342e38b045d9f1e8e905d2e9c9160409182519182526020820152a1005b63950b247960e01b5f5260045ffd5b346102635760403660031901126102635761081b6115a7611bfe565b6115af6124eb565b604051906115be602083611c7b565b5f82525f368137600435611df4565b34610263575f366003190112610263576001546001600160a01b038116330361163a575f80546001600160a01b031980821633908117845593166001556001600160a01b0316907f8be0079c531659141344cd1fd0a4f28419497f9722a3daafe3b4186f6b6457e09080a3005b60405162461bcd60e51b815260206004820152601660248201527526bab9ba10313290383937b837b9b2b21037bbb732b960511b6044820152606490fd5b34610263575f366003190112610263576003546040516001600160a01b039091168152602090f35b34610263576040366003190112610263576116b9611c14565b6116c1611bfe565b906116ca612653565b600254906001600160a01b038216611708576001600160a01b03199182166001600160a01b0391821617600255600380549092169216919091179055005b631688c53760e11b5f5260045ffd5b34610263575f36600319011261026357602060405160648152f35b346102635760203660031901126102635761174b611c14565b6117536124eb565b61175b612653565b6002546001600160a01b031690811561040057600b546001600160601b038116908115610b11576bffffffffffffffffffffffff1916600b55600a546020926044916001600160601b036117b18583831661230c565b16906001600160601b03191617600a555f604051958694859363a9059cbb60e01b855260018060a01b0316600485015260248401525af19081156103ae575f916117fe575b5015610b1157005b611817915060203d6020116103a7576103998183611c7b565b816117f6565b346102635760203660031901126102635763d623472560e01b5f5260045ffd5b34610263576020366003190112610263576004356001600160a01b038116908190036102635761186b6124eb565b611873612653565b600b54906001600160601b038260601c16908115610b11576bffffffffffffffffffffffff60601b19909216600b55600a5461081b9290600160601b600160c01b036118cc84606084901c6001600160601b031661230c565b60601b16906001600160601b0360601b191617600a556126a4565b34610263575f3660031901126102635760206040516001600160601b037f0000000000000000000000000000000000000000000000000000000000000000168152f35b34610263575f366003190112610263576002546040516001600160a01b039091168152602090f35b34610263575f3660031901126102635760206001600160601b03600a5460601c16604051908152f35b34610263575f3660031901126102635760206040517f00000000000000000000000000000000000000000000000000000000000000008152f35b34610263576119c336611cb3565b5f828152600560205260409020546001600160a01b031615611266575f828152600660205260409081902080547f1ced9348ff549fceab2ac57cd3a9de38edaaab274b725ee82c23e8fc8c4eec7a936001600160601b0391821692610c88928083169190610c4b83876122ec565b3461026357604036600319011261026357600435611a4d611bfe565b611a56826124af565b611a5e6124eb565b611a6782612509565b915f8080806001600160601b038716855af1611a81611d95565b501561157c57604080516001600160a01b0390921682526001600160601b03928316602083015291909216908201527f8c74ce8b8cf87f5eb001275c8be27eb34ea2b62bfab6814fcc62192bb63e81c49080606081016105d0565b3461026357606036600319011261026357611af5611bfe565b6044356001600160401b038111610263573660238201121561026357806004013591611b2083611c9c565b91611b2e6040519384611c7b565b8383526024602084019460051b8201019036821161026357602401935b818510611b5f5761081b8484600435611df4565b8435815260209485019401611b4b565b34610263575f366003190112610263576101209060ff600c5461ffff8116835263ffffffff8160101c166020840152818160301c161515604084015263ffffffff8160381c16606084015263ffffffff8160581c16608084015263ffffffff8160781c1660a084015263ffffffff8160981c1660c0840152818160b81c1660e084015260c01c16610100820152f35b602435906001600160a01b038216820361026357565b600435906001600160a01b038216820361026357565b608081019081106001600160401b03821117610edd57604052565b606081019081106001600160401b03821117610edd57604052565b602081019081106001600160401b03821117610edd57604052565b90601f801991011681019081106001600160401b03821117610edd57604052565b6001600160401b038111610edd5760051b60200190565b6040906003190112610263576004359060243590565b90602080835192838152019201905f5b818110611ce65750505090565b8251845260209384019390920191600101611cd9565b90600182811c92168015611d2a575b6020831014611d1657565b634e487b7160e01b5f52602260045260245ffd5b91607f1691611d0b565b90611d3e82611c9c565b611d4b6040519182611c7b565b8281528092611d5c601f1991611c9c565b0190602036910137565b80518210156109bb5760209160051b010190565b6001600160401b038111610edd57601f01601f191660200190565b3d15611dbf573d90611da682611d7a565b91611db46040519384611c7b565b82523d5f602084013e565b606090565b919082039182116107bb57565b919082018092116107bb57565b818110611de9575050565b5f8155600101611dde565b90925a825f52601060205260405f2054156122dd57825f52601060205260405f209360405190611e2382611c2a565b855482526001860154966002602084019763ffffffff8a16895263ffffffff604086019a60201c168a52019160405192835f825492611e6184611cfc565b80845293600181169081156122bb5750600114612277575b50611e8692500384611c7b565b6060840192835280518061223b575050611ea663ffffffff895116611d34565b965f5b63ffffffff8a5116811015611ef657600163ffffffff9160405160208101908b825282604082015260408152611ee0606082611c7b565b519020611eed828d611d66565b52019050611ea9565b505f8094969950611f3b9263ffffffff8993611f498497999c5b6040519788916020830198631fe543e360e01b8a526024840152604060448401526064830190611cc9565b03601f198101885287611c7b565b660100000000000066ff00000000000019600c541617600c555116935193f190611f71611d95565b50600c805466ff000000000000191690555180515f1981018181116107bb57825111156109bb5701601f015160f81c60011493611faf905a90611dc4565b6001600160601b037f000000000000000000000000000000000000000000000000000000000000000016908181029181830414901517156107bb5761201d906001600160601b037f000000000000000000000000000000000000000000000000000000000000000016611dd1565b84156121dd575b6001600160601b031682515f52600660205260405f2091855f14612156576001600160601b03835460601c1693828510610b115761208960a09461132d857faeb4b4786571e184246d39587f659abf0e26f41f6a3358692250382c0cdb47b79861230c565b600b54600160601b600160c01b036120ae85606084901c6001600160601b03166122ec565b60601b16906001600160601b0360601b191617600b555b855f526010602052600260405f205f81555f6001820155016120e78154611cfc565b9081612113575b505051956040519286845260208401526040830152151560608201525f6080820152a3565b81601f5f931160011461212a5750555b5f806120ee565b8183526020832061214691601f0160051c810190600101611dde565b8082528160208120915555612123565b6001600160601b03839493541692828410610b11577faeb4b4786571e184246d39587f659abf0e26f41f6a3358692250382c0cdb47b7946001600160601b036121a18560a09761230c565b166001600160601b0319825416179055600b546001600160601b036121c8858284166122ec565b16906001600160601b03191617600b556120c5565b80670de0b6b3a76400000290670de0b6b3a76400008204036107bb577f00000000000000000000000000000000000000000000000000000000000000008015612227579004612024565b634e487b7160e01b5f52601260045260245ffd5b9093959863ffffffff909893959851160361226857855f611f3b9263ffffffff829695611f498497611f10565b631f9efadb60e11b5f5260045ffd5b90505f9291925260205f20905f915b81831061229f575050906020611e86928201015f611e79565b6020919350806001915483858a01015201910190918592612286565b905060209250611e8694915060ff191682840152151560051b8201015f611e79565b6341abc80160e01b5f5260045ffd5b906001600160601b03809116911601906001600160601b0382116107bb57565b906001600160601b03809116911603906001600160601b0382116107bb57565b90816020910312610263575180151581036102635790565b5f1981146107bb5760010190565b903590601e198136030182121561026357018035906001600160401b0382116102635760200191813603831361026357565b3563ffffffff811681036102635790565b80548210156109bb575f5260205f2001905f90565b9060018060a01b038116805f52600460205260405f20835f5260205260405f209081549160ff831661245557845f526005602052600260405f20019260648454146124465760ff191660011790558154600160401b811015610edd577f1e980d04aa7648e205713e5e8ea3808672ac163d10936d36f91b2c88ac1575e1936106d082602095600161243d95018155612395565b604051908152a2565b6305a48e0f60e01b5f5260045ffd5b5050505050565b90604051918281549182825260208201905f5260205f20925f5b81811061248d57505061248b92500383611c7b565b565b84546001600160a01b0316835260019485019487945060209093019201612476565b5f908152600560205260409020546001600160a01b03166124cf816126bc565b8033036124d95750565b636c51fda960e11b5f5260045260245ffd5b60ff600c5460301c166124fa57565b63769dd35360e11b5f5260045ffd5b5f8181526005602090815260408083206006909252822054600290910180546001600160601b03606084901c811696959316939091905b82811061261b5750505080612586915f526005602052600260405f205f81555f60018201550180545f825580612601575b5050805f5260066020525f60408120556127f7565b50806125d5575b82612596579190565b600a54600160601b600160c01b036125bb85606084901c6001600160601b031661230c565b60601b16906001600160601b0360601b191617600a559190565b600a546001600160601b036125ec8382841661230c565b16906001600160601b03191617600a5561258d565b612614915f5260205f2090810190611dde565b5f80612571565b8061262860019284612395565b838060a01b0391549060031b1c165f52600460205260405f20855f526020525f604081205501612540565b5f546001600160a01b0316330361266657565b60405162461bcd60e51b815260206004820152601660248201527527b7363c9031b0b63630b1363290313c9037bbb732b960511b6044820152606490fd5b5f80809381935af16126b4611d95565b501561157c57565b6001600160a01b03161561126657565b906040516126d981611c60565b5f905280156127785781356001600160e01b031981169060048310612758575b506001600160e01b031916630da05d9960e31b01612749578060041161026357602090820182900360031901126102635760046040519161273983611c60565b0135801515810361026357815290565b632923fee760e11b5f5260045ffd5b6001600160e01b0319600484900360031b81901b9091161690505f6126f9565b505060405161278681611c60565b5f815290565b805f52600960205260405f2054155f146127f257600854600160401b811015610edd576127db6127c58260018594016008556008612395565b819391549060031b91821b915f19901b19161790565b9055600854905f52600960205260405f2055600190565b505f90565b5f8181526009602052604090205480156128a2575f1981018181116107bb576008545f198101919082116107bb5780820361286a575b505050600854801561077a575f1901612847816008612395565b8154905f199060031b1b191690556008555f5260096020525f6040812055600190565b61288c61287b6127c5936008612395565b90549060031b1c9283926008612395565b90555f52600960205260405f20555f808061282d565b50505f9056fea264697066735822122067415d697fe23912b626857bad9a09ad879ff9af5c6978c627d7d7a5330f4e9364736f6c634300081c0033",
  "linkReferences": {},
  "deployedLinkReferences": {},
  "immutableReferences": {
    "2623": [
      {
        "length": 32,
        "start": 6406
      },
      {
        "length": 32,
        "start": 8184
      }
    ],
    "2625": [
      {
        "length": 32,
        "start": 1070
      },
      {
        "length": 32,
        "start": 8121
      }
    ],
    "2627": [
      {
        "length": 32,
        "start": 6546
      },
      {
        "length": 32,
        "start": 8699
      }
    ]
  },
  "inputSourceName": "project/contracts/VRFCoordinatorV2_5Mock.sol",
  "buildInfoId": "solc-0_8_28-dcf187e47ea9d99f8f24f2af18d1acb5687199f1"
}